:060000000A128A110C280F
:10000800FE00030EFA000A08FB000A168A11572B95
:100018000A168A11BA2A00308A000408840A82075C
:100028000034003480343F34CD34CC343D34D734BC
:1000380023343C34123483343A34B734D13438342A
:10004800C63427343734383486343534C034D6345B
:100058003334CC342B343234703489343034E7348C
:10006800DB342E34E5343C341E344234A2340D34AF
:10007800003480343F340034203441340034C834F0
:10008800423400347A34443440341C3446345034D6
:10009800C3344734243474344934973418344B34D3
:1000A800BC34BE344C346B346E344E3403341534A3
:1000B80050347934AD346034F33449347134013414
:1000C8000034003400340A3400340034003464341A
:1000D800003400340034E83403340034003410347D
:1000E800273400340034A0348634013400344034DA
:1000F80042340F3400348034963498340034003459
:10010800E134F53405340034CA349A343B342034AD
:100118004F34743468346534723420346E34753432
:100128006D346234653472347334203400342034CE
:100138004E3475346D34623465347234203431345D
:100148002034003420344E3475346D3462346534D0
:100158007234203432342034003420344E34753430
:100168006D346234653472342034333420340034CE
:1001780020344E3475346D3462346534723420342E
:10018800343420340034783475346E3467343A3477
:1001980020342534303435346434003476343A34F9
:1001A8002034253433342E34323466340034831208
:1001B8000313A100210884000A128A110F200A12D1
:1001C8008A11003803190800210884000A128A11CC
:1001D8000F200A128A11F4200A128A11A10ADE28B5
:0C01E800A0000C1EF5282008990008005B
:10020000FF0001308A007F08820705290A128A113F
:10021000FA2C8E30AC00FF302B0503191629031081
:10022000AB0CAA0CA90CA80CAC0A0B292808A0003E
:100230002908A1002A08A2002C08A300A401632415
:100240002008A8002108A9002208AA0008000430FC
:10025000A600A7012F08A9002E08A80064232608DD
:100260009500171297122E080239013A03199716B2
:100270002E18171608008E30AD01AC00AB1F4D29AB
:10028000A809A909AA09AB09A80A0319A90A031907
:10029000AA0A0319AB0AAD01AD0AFF302B050319F9
:1002A00058290310AB0CAA0CA90CA80CAC0A4D29B8
:1002B0002808A0002908A1002A08A2002C08A300F1
:1002C0002D08A40063242008A8002108A900220802
:1002D000AA0008003108B4003208B5003308B6009F
:1002E0000310350D360DBB00BB08031D7B29AE0185
:1002F000AF01B00108002E08B4002F08B500300887
:10030000B6000310350D360DBC00BC08031D8C294A
:10031000AE01AF01B00108008930B801B901BA01DE
:100320003C07B400BB023308BC003008BC06803078
:10033000BC051830B217B301AF17B001B7000310F6
:10034000B80DB90DBA0D30083302031DAD292F08C1
:100350003202031DAD292E083102031CBB292E08D1
:10036000B1022F08031C2F0FB2023008031C300A01
:10037000B30238140310B10DB20DB30DB70B9F29A2
:100380003808A0003908A1003A08A2003B08A300E1
:100390003C08A40063242008AE002108AF00220816
:1003A000B00008008312D600D61F9E2AD609D60AAE
:1003B0005608803A123E031C422A0A30C5240A120B
:1003C0008A11A9230A128A112108A9002008A8006D
:1003D00064230A128A11F2241C3E84000A128A1134
:1003E0000F200A128A11BD000A128A110F200A1268
:1003F0008A11BE000A128A110F200A128A11DA2409
:100400000A128A11A81BA90364230A128A11A924BB
:10041000373E84000A128A110F200A128A11C00086
:100420000A128A110F200A128A11C1000A128A11B7
:100430000F200A128A11C200E6230A128A11B1247F
:100440000A128A11A21BA303A9230A128A11A1244A
:10045000013E84000A128A110F200A128A11BD007F
:100460000A128A110F200A128A11BE000A128A117A
:100470000F200A128A11E2240A128A11E6230A12B4
:100480008A11BE2C5608803A753E031C872A0A3012
:10049000A000A1015608A200A301A21BA303A92347
:1004A0000A128A11A124013E84000A128A110F2027
:1004B0000A128A11BD000A128A110F200A128A112B
:1004C000BE000A128A110F200A128A11EA240A12A7
:1004D0008A11A81BA90364230A128A11A9241C3EAD
:1004E00084000A128A110F200A128A11C0000A120F
:1004F0008A110F200A128A11C1000A128A110F20D4
:100500000A128A11C200E6230A128A11BE2C033095
:10051000A90056085524013E84000A128A110F20B2
:100520000A128A11CC000A128A110F200A128A11AB
:10053000CD000A128A110F20CE0008005608803A1A
:10054000123E031C082B0A30C5240A128A11A92363
:100550000A128A112108A9002008A80064230A129F
:100560008A11F224433E84000A128A110F200A12D3
:100570008A11BD000A128A110F200A128A11BE00C8
:100580000A128A110F200A128A11DA240A128A1119
:10059000A81BA90364230A128A11A9245E3E8400C1
:1005A0000A128A110F200A128A11C0000A128A1137
:1005B0000F200A128A11C1000A128A110F200A1292
:1005C0008A11C200E6230A128A11B1240A128A1182
:1005D000A21BA303A9230A128A11A124283E840086
:1005E0000A128A110F200A128A11BD000A128A11FA
:1005F0000F200A128A11BE000A128A110F200A1255
:100600008A11E2240A128A11E6230A128A11BE2CE8
:100610005608803A753E031C4D2B0A30A000A101FC
:100620005608A200A301A21BA303A9230A128A1140
:10063000A124283E84000A128A110F200A128A116E
:10064000BD000A128A110F200A128A11BE000A1276
:100650008A110F200A128A11EA240A128A11A81B91
:10066000A90364230A128A11A924433E84000A12B2
:100670008A110F200A128A11C0000A128A110F2053
:100680000A128A11C1000A128A110F200A128A1155
:10069000C200E6230A128A11BE2C0330A9005608B4
:1006A0005524283E84000A128A110F200A128A114A
:1006B000CC000A128A110F200A128A11CD000A12E8
:1006C0008A110F20CE000800AB01A71F6E2BA609D0
:1006D000A709A60A0319A70AAB01AB0AA91F772B22
:1006E000A809A909A80A0319A90A0130AB06AC0197
:1006F000AD012708260403199C2BAA01AA0AA71BEF
:10070000852B0310A60DA70D7E2B0310AC0DAD0D90
:1007100027082902031D8E2B26082802031C982B6C
:100720002608A8022708031CA903A9022C140310F9
:10073000A70CA60CAA0B852B2B080319A42BAC091C
:10074000AD09AC0A0319AD0A2D08A7002C08A600B4
:100750000800A501A31FB32BA209A309A20A03192C
:10076000A30AA501A50AA11FBA2BA009A109A00AE5
:100770000319A10A210820040319D92BA401A40AF2
:10078000A11BC62B0310A00DA10DBF2B2108230216
:10079000031DCC2B20082202031CD52B2008A2020B
:1007A0002108031CA303A3020310A10CA00CA40B9B
:1007B000C62B25080319E12BA209A309A20A0319D4
:1007C000A30A2308A1002208A00008003D08C300D6
:1007D0003E08C4003F08C5000310440D450DC60087
:1007E000C608031DF72BBD01BE01BF01080040086C
:1007F000C3004108C4004208C5000310440D450D64
:10080000CB00CB08031D082CBD01BE01BF010800B1
:100810004B087B3EC6073F08CB004208CB06803022
:10082000CB050730BE17C117C201C701C801C901F6
:10083000CA003D1C232C4008D0240A128A11031838
:10084000420A031DC9070310BF0CBE0CBD0C0310E8
:10085000C00DC10DC20DCA0B192C0930CA003D1CB8
:10086000392C4008D0240A128A110318420A031DA9
:10087000C9070310BF0CBE0CBD0C0310C90CC80C7B
:10088000C70CCA0B2F2C4708A0004808A100490834
:10089000A2004608A3004B08A40063242008BD0062
:1008A0002108BE002208BF000800AB00AA012908E9
:1008B0002B18AA070310A90D0310AB0CAB08031DDE
:1008C000572C2A080800230803196B2C220821043E
:1008D0002004031D742CA001A101A2010800A30A99
:1008E0000310A20CA10CA00CFE3022050319832CCE
:1008F0006F2CA30AA00A0319A10A0319A20A031064
:10090000A20CA10CA00CFF30220503198D2C792C10
:10091000A3030310A00DA10DA20DA11F882C231C61
:10092000A1130310A30C2308A700A601A501250805
:10093000A0042608A1042708A2042408031DA21766
:1009400008002008CF002108D0004F084F074F07AC
:1009500008002608D1002708D20051085107510786
:1009600008003D08D3003E08D4003F08D5000A30F7
:10097000A000A1015608A200A30108003D08CC0078
:100980003E08CD003F08CE000800A600A70156088B
:10099000A200A301A21BA3036430A000A1010800D0
:1009A000C707410803110318410A031DC80742087D
:1009B00003110800BF006430A600A7015608A80074
:1009C000A9010800BF005308C0005408C100550821
:1009D000C2000800BF000A30A600A7015608A80000
:1009E000A90108002608CF002708D0004F084F07AC
:1009F0004F07080083123608152DA6002508031995
:100A0000042D4030A700052DA7012608A7072708B9
:100A10008038A000003005260A128A11B0260A127A
:100A20008A110038031908000E2DA8003B2D003054
:100A3000A001A00A05260A128A11B0260A128A11FC
:100A40000038031908001D2D0030A501A50AFD2C52
:100A50002808DB260A128A11031C08002808A000B7
:100A6000013005260A128A11B0260A128A110038AE
:100A700003190800342D28080A3A0319242D063AD0
:100A80000319172D282D0800031388118810081149
:100A900008128812081388138312033088118810F3
:100AA0000811A7008A30A6005630A500A50B562DC8
:100AB000A60B562DA70B562D5D2DE9260A128A117D
:100AC00005260A128A110230A7004530A600A93077
:100AD000A500A50B692DA60B692DA70B692D702DFF
:100AE000E9260A128A1105260A128A110230A70085
:100AF0004530A600A930A500A50B7C2DA60B7C2DAA
:100B0000A70B7C2D832D323083120313A0000030FD
:100B100005260A128A110330A7008A30A600563033
:100B2000A500A50B912DA60B912DA70B912D982D0E
:100B3000033083120313A7008A30A6005630A500A5
:100B4000A50BA02DA60BA02DA70BA02DA72D033024
:100B500083120313A7008A30A6005630A500A50B08
:100B6000AF2DA60BAF2DA70BAF2DB62DB0260A12B9
:100B70008A110038031DB62D2830A000003005264C
:100B80000A128A11B0260A128A110038031DC22DDA
:100B90000830A000003005260A128A11B0260A1279
:100BA0008A110038031DCE2D0C30A0000030052620
:100BB0000A128A11B0260A128A110038031DDA2D92
:100BC0000030A001A00A05260A128A11B0260A12D6
:100BD0008A110038031DE62D0430A00000300526E0
:100BE0000A128A11B0260A128A110038031DF22D4A
:100BF0000030A001A00A05260A128A11B0260A12A6
:100C00008A11003803190800FE2DA300831608126C
:100C1000881208138813831288102308031D881470
:100C20002130A100A10B122E8312031321300811D1
:100C3000A100A10B192E8312031388112008A40010
:100C4000240E0139A100210C031C2A2E8312031348
:100C500008162D2E831203130812240EA100210C56
:100C60000139A200220C031C392E831203138816AB
:100C70003C2E831203138812240EA100A10C210C18
:100C80000139A200220C031C492E831203130817FA
:100C90004C2E831203130813240D240D0139A100D7
:100CA000210C031C572E8312031388175A2E83120C
:100CB000031388132130A100A10B5C2E83120313B0
:100CC00021308815A100A10B632E83120313881114
:100CD00024080139A100210C031C722E8312031376
:100CE0000816752E831203130812240C0139A10073
:100CF000210C031C7F2E831203138816822E83126D
:100D000003138812240CA100210C0139A200220C2B
:100D1000031C8E2E831203130817912E83120313C4
:100D20000813240CA100A10C210C0139A200220CF3
:100D3000031C9E2E831203138817A12E8312031304
:100D400088132130A100A10BA32E8312031321309D
:100D50008815A100A10BAA2E831203138811080085
:100D60008316031308168816081788178312213074
:100D700008158810A000A00BBB2E8312031321308E
:100D80008815A000A00BC22E003083120313881B0D
:100D90000130A10021308811A000A00BCD2E8312BC
:100DA000031321308815A000A00BD42E8312031347
:100DB000881121080800A1007F30A001210203183A
:100DC000E72E20302102031CE72EA001A00A200CF0
:100DD0000800303083120313A00000348030DA069C
:100DE0005B08CC005C08CD005D08CE005808CF0041
:100DF0005908D0005A08D10004274C08D8004D08E3
:100E0000D9004E08DA0008004C08D2004D08D30083
:100E10004E08D4000310530D540DD7004F08D200D4
:100E20005008D3005108D4000310530D540DD600C0
:100E300057080319272F56085702560803182F2F53
:100E4000D2005708D20219305202031C2E2F4F082D
:100E5000CC005008CD005108CE00080056080319F8
:100E600008005708560203183D2F5708D2005608AD
:100E7000D20219305202031808000630D500CE1BEA
:100E8000D517D11B5517CD17CE01D017D101560854
:100E900057020318642F0310CF0DD00DD10DD603C8
:100EA0005608570603195F2FD5035508073903194C
:100EB0005F2F4B2F0310CE0CCD0CCC0CD70A57084C
:100EC00056060319802F5A2F570856020318802FF1
:100ED0000310CC0DCD0DCE0DD703560857060319C0
:100EE0007C2FD5035508073903197C2F682F031071
:100EF000D10CD00CCF0CD60A57085606031D772FFD
:100F0000D51F8B2FFF30CC06CD06CE06CC0A031999
:100F1000CD0A0319CE0A551F962FFF30CF06D006F3
:100F2000D106CF0A0319D00A0319D10AD5014C08FA
:100F3000CF074D08031103184D0A031DD0074E08B3
:100F4000031103184E0A031DD107D11FB22FFF3022
:100F5000CF06D006D106CF0A0319D00A0319D10A49
:100F6000D501D50A4F08A0005008A1005108A200E1
:100F70005708A3005508A4000A128A116324200808
:100F8000CC002108CD002208CE000800A21FD52FDA
:100F90002008003CA0002108031C210F003CA100F8
:100FA0002208031C220F803CA200A51FE42F230867
:100FB000003CA3002408031C240F003CA4002508C7
:100FC000031C250F803CA5008030A206A50625083D
:100FD0002202031D080024082102031D0800230823
:100FE00020020800023083169A0008309900181277
:100FF0001815031787158312031318139817080081
:101010008316B700831203136208E20A84000A12DF
:101020008A110F200A128A158316B600B608031912
:10103000ED2E3608253A031936283708013E84007C
:101040008313800803192C28360812270A128A11E4
:1010500000210A128A150A28370884000008840033
:101060003608800037088400800A0A28AB01AC01EA
:10107000A701A8013F28831627158312E20A8312CD
:10108000620884000A128A110F200A128A15303A67
:1010900003193B284B28620884000A128A110F208A
:1010A0000A128A15CE270A128A15031C7F28831676
:1010B000AB01AC0183162C088312A10083162B0808
:1010C000C8270A128A15DF27620884000A128A11CB
:1010D0000F200A128A155C270A128A15AB00A8276E
:1010E000AC008312E20A620884000A128A110F20FF
:1010F0000A128A15CE270A128A1503185A2862087E
:1011000084000A128A110F200A128A152E3A031D32
:10111000B928831628178312E20A8316B401B50191
:101120008312620884000A128A110F200A128A159B
:10113000CE270A128A15031CC0288316350883128D
:10114000A10083163408C8270A128A15DF2762080F
:1011500084000A128A110F200A128A155C270A12CB
:101160008A15B400A8270A128A15B5008312E20A6C
:1011700090288316B401B5012816C0282815D82850
:1011800083126208E20A84000A128A110F200A12EE
:101190008A158316B600003A0319ED2E643A031936
:1011A000D828023A0319BE280F3A0319D8280A286A
:1011B00083120730E401831628058312E5006404D6
:1011C00003193D2D8316281EE8280630B400B5010A
:1011D00083126308840083130008E400033080074F
:1011E0006408840000088316B100840A0008B20075
:1011F000840A0008B30031088312A0008316320865
:101200008312A100831633088312A200A301A40154
:10121000A5010A128A11C6270A128A1503182C2959
:10122000831631088312A000831632088312A100AE
:10123000831633088312A200F8270A128A152008A1
:101240008316B100831221088316B200831222088C
:101250008316B3000330A7048316A901AA0133083B
:10126000320431040319D929B130840000088312F3
:10127000E400840A0008E500840A0008E600840A05
:101280000008E7000F300310E70CE60CE50CE40C57
:10129000FF3E031D432965088316AA0083126408D4
:1012A0008316A9008230AA01A907031CAA03FF30F4
:1012B000A907031CAA0303308312A000A10183160F
:1012C0002A088312A300831629088312A200DF27AD
:1012D00021088316AA00831220088316A9000A3069
:1012E0008312A600A70183162A088312A900831679
:1012F00029088312A8000A128A1164230A128A1587
:1013000027088316AA00831226088316A900AA1F9D
:101310008D29FF30A907031CAA032903FF3A0A12EB
:101320008A11D2210A128A154E270A128A15842799
:10133000831624088312C000831625088312C10077
:10134000831626088312C2000A128A11E6230A12A3
:101350008A153D088316A40083123E088316A50053
:1013600083123F088316A60034278030A301A4000F
:101370003F30A5000A128A11C6270A128A150318DF
:10138000C729FF308316A907031CAA03D92983168E
:1013900034272030A301A4004130A5000A128A118D
:1013A000C6270A128A15031CD9298316A90A03190C
:1013B000AA0A83163508803AFF0080307F02031D99
:1013C000E3290D30340203180E2ADC2734080A16EC
:1013D0008A1149250A128A155808CC005908CD00EF
:1013E0005A08CE00831631088312CF0083163208C4
:1013F0008312D000831633088312D1000A128A1197
:1014000004270A128A154C088316B10083124D086E
:101410008316B20083124E088316B300DC272A0815
:10142000803AFF0080307F02031D182A0A3029020B
:101430000318392ADC2733083204310403198B2AB4
:10144000310872270A168A11A4230A128A15310854
:1014500030042F042E04031D8B2A83162A08803A99
:10146000FF0080307F02031D372A02302902031C4F
:101470008B2ADC2734277030A3008930A400403049
:10148000A5000A128A11C6270A128A1503184A2AC9
:10149000F7304B2AF8308316A907031CAA03290842
:1014A0000A128A11D2210A128A154E27A000831629
:1014B00032088312A100831633088312A200831618
:1014C00024088312A300831625088312A400831620
:1014D00026088312A5000A168A1106240A128A1504
:1014E00023088316A300831222088316A200831206
:1014F00021088316A100831220088316A000230868
:10150000B0002208AF002108AE002008AD00B101F4
:10151000B201B301CE2ADC27310872270A168A11DC
:10152000A4230A128A1540278316AD0030088312BF
:10153000AB0083162F088312AA0083162E0883128D
:10154000A90083162D088312A8000A128A11092106
:101550000A128A152808D8002908D9002A08DA00B2
:10156000831631088312DB00831632088312DC00F5
:10157000831633088312DD000A128A11EE260A123E
:101580008A1558088316B100831259088316B200D1
:1015900083125A088316B300A901AA01B601B60A3C
:1015A0001A270A128A110F200A128A15E5000A1258
:1015B0008A110F200A128A15E6000A128A110F20DA
:1015C0000A128A15E7000A128A110F200A128A15D8
:1015D000E80083163002031DFD2A83126708831674
:1015E0002F02031DFD2A8312660883162E02031D97
:1015F000FD2A8312650883162D02031C042BB60AEC
:1016000036080A3A031DD02A340836078312E4004C
:10161000831635080318350AB61BFF3E8312E50012
:101620008316290883126407E60083162A08031824
:101630002A0A83126507E70066088316AB02831245
:1016400067088316031CAC03AC0235083404031985
:101650002D2BFF30AB07031CAC03270803390319FC
:10166000352BFF30AB07031CAC032719512B762B0E
:101670008316A1270A128A150319462B3030122728
:101680000A128A1100210A128A154C2B370884008D
:1016900000087D270A128A15FF30DC27AB07031CE0
:1016A000AC032C08803AFF0080307F02031D5A2BC8
:1016B00001302B02031CF72B382B8316A1270A12AB
:1016C0008A1503196B2B203012270A128A11002168
:1016D0000A128A15712B370884000008B6270A12EF
:1016E0008A15FF30DC27AB07031CAC032C08803ABB
:1016F000FF0080307F02031D7F2B01302B02031877
:101700005D2BDC27270803390319F72B3708013E27
:101710008400831380080319952B2D3012270A1299
:101720008A1100210A128A15F72BBD270A128A1581
:10173000F42BAF270A128A150319CC2B8312032727
:101740000A128A110F200A128A15A0000A128A11A1
:101750000F200A128A15A1000A128A110F200A12FC
:101760008A15A2000A128A110F200A128A15F12680
:101770000A168A110F230A128A152B270A168A11B4
:10178000D1220A128A152D08303E24270A128A1106
:1017900000210A128A15F72B831203270A128A11D5
:1017A0000F200A128A15A0000A128A110F200A12AD
:1017B0008A15A1000A128A110F200A128A15A200A6
:1017C0000A128A110F200A128A15F1260A168A11A6
:1017D0000F230A128A152B270A168A11D1220A1200
:1017E0008A1567270A128A15C2270A128A15DC276A
:1017F000B603360F992B2A08803AFF0080307F020B
:10180000031D042C01302902031C202C8316A12760
:101810000A128A150319142C303012270A128A1161
:1018200000210A128A151A2C3708840000087D2727
:101830000A128A15FF30DC27A907031CAA03FB2B19
:10184000DC273508803AFF0080307F02031D2A2CF8
:1018500009303402031C2F2C0830DC27312CDC2704
:101860003408B6008312E400E501E41BE5038316A7
:10187000B402831265088316031CB503B50236084B
:1018800003195A2C3708013E84008313800803197A
:10189000512C2E3012270A128A1100210A128A15A1
:1018A0005A2C37088400000884002E308000370846
:1018B0008400800ADC2736080A128A11D2210A1213
:1018C0008A154C08C0004D08C1004E08C20083169E
:1018D0003108831284270A128A11E6230A128A1514
:1018E0003D08AE003E08AF003F08B0000A168A115E
:1018F000A4230A128A1540270A128A15192DAF2728
:101900000A128A150319B22C831203270A128A11AC
:101910000F200A128A15A0000A128A110F200A123B
:101920008A15A1000A128A110F200A128A15A20034
:101930000A128A110F200A128A15F1260A168A1134
:101940000F230A128A152B270A168A11D1220A128E
:101950008A152D08303E24270A128A1100210A1206
:101960008A15DD2C831203270A128A110F200A120E
:101970008A15A0000A128A110F200A128A15A100E6
:101980000A128A110F200A128A15A2000A128A115D
:101990000F200A128A15F1260A168A110F230A123D
:1019A0008A152B270A168A11D1220A128A1567274F
:1019B0000A128A15C2270A128A15DC271A270A1268
:1019C0008A110F200A128A15AD000A128A110F20FF
:1019D0000A128A15AE000A128A110F200A128A15FD
:1019E000AF000A128A110F200A128A15B00083165E
:1019F00030088312B40083162F088312B3008316B5
:101A00002E088312B20083162D088312B1000A1625
:101A10008A11D1220A128A1530088316B000831267
:101A20002F088316AF0083122E088316AE00831290
:101A30002D088316AD00B603360F7F2C350834040D
:101A400003190A283708013E84008313800803190C
:101A5000312D303012270A128A1100210A128A15FC
:101A6000372D3708840000087D270A128A15FF30B9
:101A7000DC27B407031CB5031E2D63088400831301
:101A80000008E40002308007640884000008E500D4
:101A9000840A0008E60065088316AD008312660814
:101AA0008316AE000030AE1BFF30AF00B000B01F99
:101AB000662D0330A704AD09AE09AF09B009AD0A20
:101AC0000319AE0A0319AF0A0319B00A3508340422
:101AD000031D722D30082F042E042D040319B40A9F
:101AE0000319B50AB601B60A1A270A128A110F207D
:101AF0000A128A15E5000A128A110F200A128A15A5
:101B0000E6000A128A110F200A128A15E7000A124B
:101B10008A110F200A128A15E80083163002031D6D
:101B2000A12D8312670883162F02031DA12D831296
:101B3000660883162E02031DA12D831265088316E5
:101B40002D02031CA82DB60A36080A3A031D742D6F
:101B500036088E270A128A153508803A83126602E3
:101B6000031DB62D83163408831264020318BC2D9E
:101B7000DC273408B600D42D831698270A128A155C
:101B80003508803A8312E6006508803A6602031D34
:101B9000CC2D6408831634020318D42DDC273608B4
:101BA000B400B501B41BB503DC272C082B040319C2
:101BB000E12D270803390319E12DFF30AB07031C82
:101BC000AC03281FFE2D3508803A8312E4008316EB
:101BD0002C08803A83126402031DF12D83162B0812
:101BE00034020318FB2DDC273408AB023508031C34
:101BF000AC03AC02FE2DDC27AB01AC0136088E270E
:101C00000A128A152C08803A83126602031D0C2ED4
:101C100083162B088312640203181A2E8316982742
:101C20000A128A15AB02831265088316031CAC03E3
:101C3000AC021D2EDC27AB01AC01271D5B2E270853
:101C4000033903193B2E3708013E840083138008B3
:101C50000319322E2D3012270A128A1100210A127E
:101C60008A153B2E37088400000884002D30800040
:101C700037088400800ADC272C082B040319972ED0
:101C80003708013E84008313800803194F2E30303B
:101C900012270A128A1100210A128A15552E3708B6
:101CA000840000087D270A128A15FF30DC27AB0765
:101CB000031CAC033C2E2C082B0403197D2E370883
:101CC000013E84008313800803196E2E20301227F2
:101CD0000A128A1100210A128A15742E370884000C
:101CE0000008B6270A128A15FF30DC27AB07031C51
:101CF000AC032C082B04031D5F2E2708033903199E
:101D0000972E3708013E8400831380080319902E14
:101D10002D3012270A128A1100210A128A15972ED5
:101D2000BD270A128A15800037088400800AFF3018
:101D3000DC27B407031CB503340A0319350A031959
:101D40000A280A308312AD00AE01AF01B00183163C
:101D500034088312E4000310E40D0310640D4F3EB9
:101D600084000A128A110F200A128A15A0000A1292
:101D70008A110F200A128A15A1000A128A110F2057
:101D80000A128A15A2000A128A110F200A128A1555
:101D9000F1260A168A110F230A128A152B270A1612
:101DA0008A11D1220A128A152D08303E8316B600F8
:101DB0003708013E8400831380080319E72E360894
:101DC00012270A128A1100210A128A15972E370843
:101DD0008400000884003608932E8312E201E30198
:101DE0000800A300831630088312A70083162F086B
:101DF0008312A60083162E088312A50083162D08D1
:101E00008312A4000800AD00AE01AF01B00183163B
:101E100036088312E4000310E40D0310640D4F3EF6
:101E2000840008008312B60083163708013E840040
:101E30000008080036088312E4000310E40D0310C4
:101E4000640D4F3E84000800B60083163708013E3B
:101E50008400000808002308B4002208B300210809
:101E6000B2002008B100080024088312A0008316E5
:101E700025088312A100831626088312A2000800F9
:101E800031088316B000831230088316AF00831226
:101E90002F088316AE0083122E0808004C08831604
:101EA000A40083124D088316A50083124E088316E2
:101EB000A6003108831208002007E4000030031850
:101EC00001302107E5006408D03E831608002D0884
:101ED000303EE50083163708840000088400831232
:101EE000650808008312AE00831632088312AF0023
:101EF000831633088312B00008008400303080005D
:101F000037088400800A0800BD0083163208831257
:101F1000BE00831633088312BF0008008312E4005A
:101F2000E501E41BE5036508803AE6008316080036
:101F3000031336088312E400E501E41BE50383166E
:101F4000080003133708013E84008313800808004B
:101F5000831265080318013EFF3E83160800370808
:101F6000013E84000A30831380080800840020307A
:101F7000800037088400800A0800370884000008C1
:101F800084002D348000831637088400800A0800FE
:101F90008312A0000A30A200A3010800A1003A3079
:101FA000A00121020318DA2F30302102031CDA2F9E
:101FB000A001A00A200C0800831603130800A40146
:101FC000A501201CE92F2208A4070318A50A23084D
:101FD000A5070310A20DA30D0310A10CA00C21084E
:101FE0002004031DE12F2508A1002408A0000800FB
:101FF000220821042004031908008030A2060800EA
:10250A00023083169A00083099001812181503171A
:10251A0087150313181398168312981718160800AC
:10252A008316B8000130BA01BB006930B900380817
:10253A008312E200B930E300BA300A128A15082879
:10254A008316B800BA006A30BB01B9008312690861
:10255A00E200B930E300BA300A128A15082083165D
:10256A003A088400831380010800F001F101F201A6
:10257A00F301F401F5018316D001D101D201D3018F
:10258A00D401D501D601D701D801D901DA01DB017D
:10259A0083010A168A119B2E30082F042E042D045B
:1025AA000319062BB501B50AB01BE12A0310AD0DBC
:1025BA00AE0DAF0DB00DD82A30083402031DEF2A34
:1025CA002F083302031DEF2A2E083202031DEF2AB9
:1025DA002D083102031C002B2D08B1022E08031C02
:1025EA002E0FB2022F08031C2F0FB3023008031C50
:1025FA00300FB4020310B00CAF0CAE0CAD0CB50B1F
:10260A00E12A3408B0003308AF003208AE003108BE
:10261A00AD000800A801A901AA01AB012308220400
:10262A002104200403194E2BAC01AC0AA31B232B53
:10263A000310A00DA10DA20DA30D1A2B0310A80DB6
:10264A00A90DAA0DAB0D23082702031D362B22085C
:10265A002602031D362B21082502031D362B2008CE
:10266A002402031C482B2008A4022108031C210F62
:10267A00A5022208031C220FA6022308031C230F0B
:10268A00A70228140310A30CA20CA10CA00CAC0BDB
:10269A00232B2B08A3002A08A2002908A100280836
:1026AA00A00008000B1D832BF40A0319F50A74080D
:1026BA00FA3A7504031D832BF401F50183120313FF
:1026CA000F08F7000E08F6007008F6027108031CDE
:1026DA00F703F70296230A168A1176088316D8009A
:1026EA007708D9000030D91BFF30DA00DB008312EB
:1026FA000E08F0000F08F100F201F3018312031330
:10270A008C1E8A2B1A088316D700831206308C1265
:10271A0081000B117B088A007A0E8300FE0E7E0E62
:10272A000900F71F08007609F8007709F900F80A86
:10273A000319F90A7808F6007908F7000800FF2358
:10274A000A168A110310330D340DBA00BA08031D94
:10275A00B32BAE01AF01B001B1010800FF230A1685
:10276A008A1117300310B40CB30CB20CFF3E031DD0
:10277A00B72B3208B500AF17B0012E08B6002F08E4
:10278A00B7003008B8008E30B901BA02BA1FDA2B86
:10279A003A08803A8F3E031CAE2B0310B90CB80CD2
:1027AA00B70CB60CBA0FD22BE82B18303A02031822
:1027BA00AE2BBA080319E82B0310B60DB70DB80DE6
:1027CA00B90DBA03DE2B35080319F62BB609B7097A
:1027DA00B809B909B60A0319B70A0319B80A0319D5
:1027EA00B90A3908B1003808B0003708AF0036080E
:1027FA00AE0008002E08B2002F08B3003008B4005B
:10280A0008002008A6002108A7002208A800031033
:10281A00270D280DAE00AE08031D182CA001A1013A
:10282A00A201A30108002308A6002408A70025087E
:10283A00A8000310270D280DAD00AD080319132CAD
:10284A007F30A117A201A417A501A901AA01AB0112
:10285A00AC01AE0298302D07A600AE021830AD00CA
:10286A000310A90DAA0DAB0DAC0D25082202031DFC
:10287A00442C24082102031D442C23082002031C93
:10288A00522C2308A0022408031C240FA1022508A5
:10289A00031C250AA20229140310A00DA10DA20DE2
:1028AA00AD0B352CAE1F662C2E08803A973E031CC2
:1028BA00132C0310AC0CAB0CAA0CA90CAE0F5E2C9B
:1028CA00742C18302E020318132CAE080319742C1A
:1028DA000310A90DAA0DAB0DAC0DAE036A2C2C0882
:1028EA00A3002B08A2002A08A1002908A0000800BA
:1028FA00203084008313000883120313A600840A7D
:10290A000008A700840A0008A800840A0008A90091
:10291A000310280D290DB300B308031D992CA0013B
:10292A00A101A201A301080023303C250A168A113D
:10293A000310280D290DB200B2080319942C203077
:10294A0084008030840A840A80042030840A840047
:10295A002330840A840A840A800184008030840A2D
:10296A00840A80042330840A84007F30840A840A1B
:10297A00840A8001AE01AF01B001B101B302A030F7
:10298A003207A600B3022030B20023300310AE0D86
:10299A00AF0DB00DB10D3C250A168A112030840006
:1029AA000008AA00840A0008AB00840A0008AC00E8
:1029BA00840A0008AD0029082D02031DEE2C280800
:1029CA002C02031DEE2C27082B02031DEE2C2608D1
:1029DA002A02031C0A2D23303C250A168A112030AC
:1029EA00840026088002840A2708031C270F800215
:1029FA00840A2808031C280F8002840A2908031C59
:102A0A00290A8002033084022E1420308400031025
:102A1A00800D840A800D840A800D840A800DB20B11
:102A2A00CA2CB31F252D3308803A9F3E031C942CD1
:102A3A000310B10CB00CAF0CAE0CB30F1D2D332D1F
:102A4A00203033020318942CB3080319332D0310D2
:102A5A00AE0DAF0DB00DB10DB303292D3108A30092
:102A6A003008A2002F08A1002E08A0000800840048
:102A7A000008A600840A0008A700840A0008A80023
:102A8A00840A0008A90008008312E1006E3061027E
:102A9A00031CD42D0330A9000A30A5006430A0001D
:102AAA00610869260A168A114E260A128A115524C5
:102ABA000A168A111C3E84000A128A110F200A166D
:102ACA008A11BD000A128A110F200A168A11BE0045
:102ADA000A128A110F200A168A11BF000330A900B0
:102AEA006430A50061084E260A128A1155240A1676
:102AFA008A11373E84000A128A110F200A168A1197
:102B0A00C0000A128A110F200A168A11C1000A127D
:102B1A008A110F200A168A11C2000A128A11E623A4
:102B2A000A168A1194260A168A110330A9000A3055
:102B3A00A000610869260A128A1155240A168A1108
:102B4A00013E84000A128A110F200A168A11BD005A
:102B5A000A128A110F200A168A11BE000A128A1155
:102B6A000F200A168A118C260A128A11E6230A16DF
:102B7A008A113D08DB003E08DC003F08DD003F30DB
:102B8A00BD01BE01BF005B08C0005C08C1005D0852
:102B9A00C2000A128A11E6230A168A11852E0B3000
:102BAA006102031C282E0330A9000A30A000610824
:102BBA0069260A128A1155240A168A11013E8400CE
:102BCA000A128A110F200A168A11BD000A128A11E6
:102BDA000F200A168A11BE000A128A110F200A163D
:102BEA008A11BF000330A9000A30A50061084E26E9
:102BFA000A128A1155240A168A111C3E84000A12E6
:102C0A008A110F200A168A11C0000A128A110F208F
:102C1A000A168A11C1000A128A110F200A168A118D
:102C2A00C2000A128A11E6230A168A1194260A1683
:102C3A008A113F30BD01BE018C260A128A11E62391
:102C4A000A168A11852E3F30BD01BE01BF0003302E
:102C5A00A90061080A128A1155240A168A11013E2E
:102C6A0084000A128A110F200A168A11C0000A1259
:102C7A008A110F200A168A11C1000A128A110F201E
:102C8A000A168A11C2000A128A11E6230A168A1142
:102C9A00852EA600A80125080319672EA701A70AF1
:102CAA00A51B5A2E0310A50D542E0310A80D250896
:102CBA002602031C642E2508A60228140310A50C5C
:102CCA00A70B5A2E28080800A2000830A300A40166
:102CDA002208A10007300310A10CFF3E0310031DB8
:102CEA00712E240D2104A4000310A20D2008240231
:102CFA00031C812E2008A402A30B6D2E24080800B1
:102D0A003D08D8003E08D9003F08DA000800BF0095
:102D1A005E08C0005F08C1006008C20008003D08E4
:102D2A00DE003E08DF003F08E000080083160317B4
:102D3A00890188010A128A1144250A168A11831602
:102D4A0007300711811281110111811401108312B8
:102D5A0081008B160B118B17831607148511051228
:102D6A00831290149012101210158E018F011013F5
:102D7A0010149210121491017C30831692000C30B8
:102D8A0083129700121583160130D301D201D100A4
:102D9A005E30D0008312AE000130AF000A128A11F1
:102DAA0027210A168A110A168A1185220A168A11F9
:102DBA000A128A11F2270A168A1183165708313A1B
:102DCA00031DEC2E8312873005128511392F5708FF
:102DDA00323A031DFD2E83120516051EF82E8312A4
:102DEA0003138515FB2E8312031385119230392F95
:102DFA005708333A031D062F83129D308515051295
:102E0A00392F5708343A031D0F2F8312A830851122
:102E1A000516392F83120516051E172F8312031361
:102E2A0085151A2F8312031385110330EF008A3098
:102E3A00EE005630ED00ED0B202FEE0B202FEF0B9E
:102E4A00202F272F83120313033005128511EF0059
:102E5A008A30EE005630ED00ED0B312FEE0B312F9C
:102E6A00EF0B312F382F77300A128A11DB200A161E
:102E7A008A111630BD01BE004430BF00B430AE0125
:102E8A00AF004330B00083165B088312AB00831691
:102E9A005A088312AA00831659088312A9008316B6
:102EAA0058088312A8000A128A113B210A168A11AD
:102EBA002808B1002908B2002A08B3000A128A11A8
:102ECA006A210A168A112E08C0002F08C10030088C
:102EDA00C2000A128A11E6230A168A113D088316CD
:102EEA00D40083123E088316D50083123F08831646
:102EFA00D600C1308312E900831654088312EA000F
:102F0A00831655088312EB00831656088312EC00C9
:102F1A00BC300A168A11A5220A168A11540883128D
:102F2A00A000831655088312A1008316560883123F
:102F3A00A200F030A301A4004130A5000A128A11B0
:102F4A00C6270A168A110318B32F8316D00A031943
:102F5A00D10A0319D20A0319D30ABC2FFF308316E8
:102F6A00D007031CD107031CD207031CD30751083F
:102F7A008312AF00831650088312AE000A128A1118
:102F8A0027210A168A110030A5010A128A11FD2486
:102F9A000A168A11831654088312E9008316550803
:102FAA008312EA00831656088312EB00BE300A1613
:102FBA008A1195220A168A110030A501A50A0A1259
:102FCA008A11FD240A168A1183165B088312EC0003
:102FDA0083165A088312EB00831659088312EA00F3
:102FEA00831658088312E900B3300A168A1195220B
:062FFA000A168A11E22E06
:02400E00C2E30B
:00000001FF
