:060000000A128A110C280F
:10000800FE00030EF6000A08F7000A128A11692B8F
:100018000A128A11EB2C0313881188100811081290
:100028008812081388138312033088118810081166
:10003800A7008A30A6005630A500A50B2128A60BDC
:100048002128A70B2128282861230A128A117E2239
:100058000A128A110230A7004530A600A930A5006F
:10006800A50B3428A60B3428A70B34283B2861237A
:100078000A128A117E220A128A110230A70045301C
:10008800A600A930A500A50B4728A60B4728A70B53
:1000980047284E2832306623A00000307E220A12FC
:1000A8008A110330A7008A30A6005630A500A50B98
:1000B8005B28A60B5B28A70B5B2862280330662306
:1000C800A7008A30A6005630A500A50B6928A60B04
:1000D8006928A70B6928702803306623A7008A308F
:1000E800A6005630A500A50B7728A60B7728A70BE6
:1000F80077287E280D230A128A110038031D7E28CE
:100108002830A00000307E220A128A110D230A121C
:100118008A110038031D8A280830A00000307E228A
:100128000A128A110D230A128A110038031D962813
:100138000C30A00000307E220A128A110D230A1208
:100148008A110038031DA2280030A001A00A7E22CF
:100158000A128A110D230A128A110038031DAE28CB
:100168000430A00000307E220A128A110D230A12E0
:100178008A110038031DBA280030A001A00A7E2287
:100188000A128A110D230A128A110038031908006D
:10019800C628B8002C30B1003808B80A84000A1202
:1001A8008A118F240A128A11BB00BB0803190800A0
:1001B800253A0319E4283B08D8210A128A11D028C5
:1001C800B901BA01B201EA283215B80A3808840020
:1001D8000A128A118F240A128A11303A0319E82860
:1001E800F528380884000A128A118F240A128A1105
:1001F800DA210A128A11031C3229B901BA013A0814
:10020800A1003908A0000A30A200A301E82138089B
:1002180084000A128A118F240A128A112007AE005C
:100228000030031801302107AF002E08D03EB90076
:100238002F080318013EFF3EBA00B80A38088400A8
:100248000A128A118F240A128A11DA210A128A11D3
:10025800031C32290329C030B20442293808B80ADD
:1002680084000A128A118F240A128A11BB00003AEC
:100278000319D729753A03192F29D0283108840082
:1002880083130008B300840A0008B400B10AB10A55
:10029800BB01BB0A03103B0D013E84000A128A1100
:1002A8008F240A128A11AE000A128A118F240A12A8
:1002B8008A11AF003402031D63292E083302031C80
:1002C8006A29BB0A3B08053A031D4E293B08AE00C4
:1002D800AF01AE1BAF032F08803AB0003A08803A4E
:1002E8003002031D792939082E020318872966234D
:1002F8003B08AE00AF01AE1BAF03B9022F08031CC9
:10030800BA03BA028A296623B901BA01321D9929AA
:100318003A0839040319A9293030D8210A128A1158
:10032800FF30B907031CBA038C293A0839040319AA
:10033800A9292030D8210A128A11FF30B907031CD5
:10034800BA033A083904031D9D293B08B700D3298D
:100358000A30A700A8010310370D013E84000A12D5
:100368008A118F240A128A11A0000A128A118F2476
:100378000A128A11A1003408A3003308A20001223E
:100388000A128A112108AA002008A9002B220A12A1
:100398008A112708303EBB00D8210A128A11B703F8
:1003A800370FAC29D0280800A9004F2AA1003A30FD
:1003B800A00121020318E62930302102031CE62996
:1003C800A001A00A200C0800A401A501201CF22904
:1003D8002208A4070318A50A2308A5070310A20DDD
:1003E800A30D0310A10CA00C21082004031DEA2969
:1003F8002508A1002408A0000800A401A5012108DF
:1004080020040319262AA601A60AA11B0F2A0310F5
:10041800A00DA10D082A0310A40DA50D2108230283
:10042800031D182A20082202031C222A2008A202DF
:100438002108031CA303A30224140310A10CA00C7D
:10044800A60B0F2A2508A1002408A00008002808E8
:10045800270403194A2AAB01AB0AA81B372A031041
:10046800A70DA80D302A28082A02031D3D2A2708AF
:100478002902031C462A2708A9022808031CAA03E4
:10048800AA020310A80CA70CAB0B372A2A08A8004D
:100498002908A7000800A800752A0030A001A00AB2
:1004A8007E220A128A110D230A128A1100380319B2
:1004B8000800572A0030A501A50A422B2808342332
:1004C8000A128A11031C08002808A00001307E22A5
:1004D8000A128A110D230A128A110038031908001A
:1004E8006E2A28080A3A03195E2A063A0319512A7D
:1004F800622A0800A30083160812881208138813BA
:10050800831288102308031D88142130A100A10B31
:100518008B2A662321300811A100A10B912A66239A
:1005280088112008A400240E0139A100210C031C05
:10053800A02A66230816A22A66230812240EA10000
:10054800210C0139A200220C031CAD2A662388164F
:10055800AF2A66238812240E5A230A128A11031C12
:10056800B82A66230817BA2A66230813240D240D0F
:100578000139A100210C031CC42A66238817C62A46
:10058800662388132130A100A10BC82A66232130D5
:100598008815A100A10BCE2A6623881124080139E9
:1005A800A100210C031CDB2A66230816DD2A66231A
:1005B8000812240C0139A100210C031CE62A662329
:1005C8008816E82A66238812240CA100210C013918
:1005D800A200220C031CF32A66230817F52A6623B7
:1005E8000813240C5A230A128A11031CFE2A6623B4
:1005F8008817002B662388132130A100A10B022B3A
:10060800662321308815A100A10B082B66238811C9
:10061800080083160313081688160817881783120C
:10062800213008158810A000A00B182B6623213054
:100638008815A000A00B1E2B00306623881B0130F4
:10064800A10021308811A000A00B282B662321309F
:100658008815A000A00B2E2B6623881121080800FE
:10066800A1007F30A00121020318402B2030210275
:10067800031C402BA001A00A200C0800A600250896
:100688000319492B4030A7004A2BA7012608A707C2
:1006980027088038A00000307E220A128A110D2314
:1006A8000A128A11003803190800532BA100A10C63
:1006B800210C0139A200220C0800303083120313E8
:1006C800A00000348312031308000B1D902BF80AB6
:1006D8000319F90A7808FA3A7904031D902BF801EE
:1006E800F901831203130E080F083C08F0003D08B7
:1006F800F1003E08F200A030F301F4004130F500AB
:10070800A4230A128A1103188C2B950A950A8E2B9A
:10071800FE3095078E018F01831203138C1E962BD2
:100728001A08BF0006308C12810007300B118100B7
:100738000B1177088A00760E8300FE0E7E0E0900E4
:10074800F21FB32B7008003CF0007108031C710FF6
:10075800003CF1007208031C720F803CF200F51F88
:10076800C22B7308003CF3007408031C740F003C90
:10077800F4007508031C750F803CF5008030F20604
:10078800F50675087202031D080074087102031D3E
:10079800080073087002080083160317890188018E
:1007A8000A128A110F200A128A11831607110610DD
:1007B80086108312061086100A128A11CD240A1296
:1007C8008A110A128A11DD240A128A118316073047
:1007D80081128111011181140110831281008B167D
:1007E8000B118B1783160714831290149012101292
:1007F80010158E018F01101310149210121491010C
:10080800F930831692000E30831297007C309500E1
:1008180012153F08313A031D152C1A30061486109C
:10082800182C1830061086140A128A11B0240A12DD
:100838008A116430A800A9010A128A1136240A1202
:100848008A110030A5010A128A1142230A128A115C
:100858001508AC000B30AD010A128A11CD200A121E
:100868008A110D2C0430A000A1012908A300280832
:10087800A2004A2420089500171297122808023966
:10088800013A03199716281817160800A501A11F81
:10089800542CA009A109A00A0319A10AA501A50AB7
:1008A800A31F5D2CA209A309A20A0319A30A0130F8
:1008B800A506A601A701210820040319822CA4017A
:1008C800A40AA11B6B2C0310A00DA10D642C03100E
:1008D800A60DA70D21082302031D742C200822024F
:1008E800031C7E2C2008A2022108031CA303A302D8
:1008F80026140310A10CA00CA40B6B2C25080319BB
:100908008A2CA609A709A60A0319A70A2708A1007D
:100918002608A000080004308A000408840A820718
:100928000034013400340A34003464340034E834C8
:10093800033410342734433443345034523431347C
:100948004C343A342034253430343534753400345A
:100958003034003431340034A100210884000A12F4
:100968008A118F240A128A110038031908002108F5
:1009780084000A128A118F240A128A11C7240A12C3
:100988008A11A10AB12CA0000C1EC82C20089900BD
:100998000800023083169A000830990018121815BA
:1009A8000317871503131813981683129817181628
:1009B8000800023083169A0008309900181218159A
:1009C8000317871583120313181398170800F801E3
:1009D800F901BC01BD01BE01BF0183010A128A11E0
:0209E800D02B12
:02400E00C2E30B
:00000001FF
