:060000000A128A110C280F
:10000800FE00030EF0000A08F1000A128A11B82F48
:100018000A128A11C72F8316AE005730A400B527DD
:100028002E08AE0A84000A168A1100200A128A11C4
:10003800B800B80803190800253A03192528380814
:10004800742CAF01B001AC01AD012E0884000A1672
:100058008A1100200A128A11A9240A128A11031C83
:100068005928AF01B0013008F3002F08F2000A3018
:10007800F400F501B7242E0884000A168A1100201E
:100088000A128A1157270A128A11AF00A727B0004F
:10009800AE0A2E0884000A168A1100200A128A1154
:1000A800A9240A128A11031837282E0884000A1670
:1000B8008A1100200A128A112E3A031D8C282D1746
:1000C800AE0AB601B7012E0884000A168A1100206C
:1000D8000A128A11A9240A128A11031C92283708C5
:1000E800F3003608F2000A30F400F501B7242E08B0
:1000F80084000A168A1100200A128A1157270A1248
:100108008A11B600A7270A128A11B700AE0A672813
:10011800B601B7012D1692282D15A2282E08AE0A71
:1001280084000A168A1100200A128A11B800003ABF
:100138000319782C663A031990281328831207307C
:10014800DA0183162D058312DB005A040319DC2B10
:1001580083162D1EB2280630B600B7012408840085
:1001680083130008B300840A0008B400840A000856
:10017800B5000330A4073308F2003408F30035084B
:10018800F400F501F601F7017D240A128A1103181B
:10019800DE283308F2003408F3003508F4002A2674
:1001A8000A128A117208B3007308B4007408B50003
:1001B8000330AC04B101B201350834043304031927
:1001C8007829B330840000088312DA00840A000812
:1001D800DB00840A0008DC00840A0008DD000F3018
:1001E8000310DD0CDC0CDB0CDA0CFF3E031DF428DD
:1001F8005B088316B20083125A088316B100823056
:10020800B201B107031CB203FF30B107031CB203EC
:100218000330F200F3013208F5003108F400B72486
:100228007308B2007208B1000A30F800F901320808
:10023800FB003108FA000A128A1569260A128A1187
:1002480079088316B2007808B100B21F2F29FF3051
:10025800B107031CB2033103FF3A0A128A15D724E7
:100268000A128A114A270A128A1179278316250841
:100278008312B500831626088312B6008316270852
:100288008312B7000A128A15EC260A128A1132085C
:100298008316A500831233088316A6008312340838
:1002A8008316A700A0270A128A118030F501F600EC
:1002B8003F30F7007D240A128A1103186829FF309D
:1002C800B107031CB2037829A0270A128A1120302B
:1002D800F501F6004130F7007D240A128A11031C4B
:1002E8007829B10A0319B20A3708803AFF0080302A
:1002F8007F02031D81290D3036020318AA29B5276C
:1003080036080A128A1531210A128A114D08C100CD
:100318004E08C2004F08C300831633088312C40076
:10032800831634088312C500831635088312C60065
:1003380032260A128A1141088316B3008312420832
:100348008316B400831243088316B500B527320814
:10035800803AFF0080307F02031DB4290A30310241
:100368000318D529B5273508340433040319162A88
:1003780033086E270A128A11D0240A128A11270814
:10038800260425042404031D162A83163208803AFD
:10039800FF0080307F02031DD32902303102031C85
:1003A800162AB527A0270A128A117030F50089305D
:1003B800F6004030F7007D240A128A110318E62956
:1003C800F730E729F830B107031CB20331080A12E5
:1003D8008A15D7240A128A114A270A128A11F200AA
:1003E8003408F3003508F4002508F5002608F6005F
:1003F8002708F700B2250A128A1175088316A30088
:100408007408A2007308A1007208A0002308AB00BA
:100418002208AA002108A9002008A800B301B401F5
:10042800B501572AB52733086E270A128A11D02436
:100438000A128A113C270A128A118316A8002B086F
:100448008312A30083162A088312A20083162908A0
:100458008312A100831628088312A000F4260A122A
:100468008A112008CD002108CE002208CF0083166B
:1004780033088312D000831634088312D100831600
:1004880035088312D20014270A128A114D088316E0
:10049800B30083124E088316B40083124F088316E4
:1004A800B500B101B201B801B80A2A270A168A11A3
:1004B80000200A128A11DB000A168A1100200A128B
:1004C8008A11DC000A168A1100200A128A11DD003E
:1004D8000A168A1100200A128A11DE0083162B02DE
:1004E800031D862A83125D0883162A02031D862AA5
:1004F80083125C0883162902031D862A83125B086F
:1005080083162802031C8D2AB80A38080A3A031DE4
:10051800592A360838078312DA0083163708031871
:10052800370AB81BFF3E8312DB008316310883129B
:100538005A07DC00831632080318320A83125B0755
:10054800DD005C088316AF0283125D088316031C66
:10055800B003B002370836040319B62AFF30AF07D4
:10056800031CB0032C080339031DC92A3008803A3C
:10057800FF0080307F02031DC32A01302F02031CB5
:10058800CF2A203079240A128A11FF30B527AF0705
:10059800031CB003BA2AB5272C0803390319022B08
:1005A8002D30FF2A34270A128A112A270A168A119F
:1005B80000200A128A11F2000A168A1100200A1273
:1005C8008A11F3000A168A1100200A128A11F4000F
:1005D8000A168A1100200A128A1163270A128A1140
:1005E80069250A128A1197270A128A112B250A12DD
:1005F8008A112508303E79240A128A11B527B803D2
:10060800380FD62A3208803AFF0080307F02031D57
:100618000F2B01303102031C1B2B303079240A12B6
:100628008A11FF30B527B107031CB203062BB52783
:100638003708803AFF0080307F02031D252B0930E0
:100648003602031C2A2B0830B5272C2BB527360871
:10065800B8008312DA00DB01DA1BDB038316B6026B
:1006680083125B088316031CB703B7023808031903
:10067800412B2E3079240A128A11B52738080A121C
:100688008A15D7240A128A114108B5004208B60013
:100698004308B7008316330879270A128A15EC260F
:1006A8000A128A113208A4003308A5003408A600EB
:1006B800D0240A128A113C270A128A11C92B34271E
:1006C8000A128A112A270A168A1100200A128A1188
:1006D800F2000A168A1100200A128A11F3000A167B
:1006E8008A1100200A128A11F4000A168A110020C1
:1006F8000A128A1163270A128A1169250A128A11B5
:1007080097270A128A112B250A128A112508303ECA
:1007180079240A128A11B5272A270A168A11002075
:100728000A128A11A5000A168A1100200A128A11D3
:10073800A6000A168A1100200A128A11A7000A16B2
:100748008A1100200A128A11A80083162B08831226
:10075800AC0083162A088312AB008316290883127B
:10076800AA00831628088312A9002B250A128A11C9
:1007780028088316AB00831227088316AA00831261
:1007880026088316A900831225088316A800B80333
:10079800380F632B370836040319132830307924AF
:1007A8000A128A11FF30B527B607031CB703CE2BF0
:1007B800831637083604031DE92B2B082A0429045D
:1007C80028040319B60A0319B70A380884270A1235
:1007D8008A113708803A83125C02031DF72B8316AF
:1007E800360883125A020318FD2BB5273608B800BD
:1007F800152C83168E270A128A113708803A83121D
:10080800DC005B08803A5C02031D0D2C5A08831635
:1008180036020318152CB5273808B600B701B61BE1
:10082800B703B52730082F040319222C2C080339E5
:100838000319222CFF30AF07031CB0032D1F3F2CD8
:100848003708803A8312DA0083163008803A831218
:100858005A02031D322C83162F08360203183C2C2B
:10086800B5273608AF023708031CB003B0023F2C87
:10087800B527AF01B001380884270A128A11300859
:10088800803A83125C02031D4D2C83162F088312B5
:100898005A0203185B2C83168E270A128A11AF029C
:1008A80083125B088316031CB003B0025E2CB527C5
:1008B800AF01B00130082F0403196F2C20307924C0
:1008C8000A128A11FF30B527AF07031CB00330089E
:1008D8002F04031D622C2C080339031913282D300B
:1008E80079240A128A1113280800FB000A128A15B3
:1008F8009B2AF41F8C2C7208003CF2007308031C1E
:10090800730F003CF3007408031C740F803CF40060
:10091800F71F9B2C7508003CF5007608031C760F22
:10092800003CF6007708031C770F803CF700803006
:10093800F406F70677087402031D080076087302A8
:10094800031D0800750872020800F3003A30F2012E
:1009580073020318B52C30307302031CB52CF20156
:10096800F20A720C0800F601F701721CC12C740817
:10097800F6070318F70A7508F7070310F40DF50DC5
:100988000310F30CF20C73087204031DB92C7708DA
:10099800F3007608F2000800AE270A128A11031045
:1009A800290D2A0DB000B008031DDF2CA401A501F4
:1009B800A601A7010800AE270A128A1117300310F2
:1009C800AA0CA90CA80CFF3E031DE32C2808AB00B9
:1009D800A517A6012408AC002508AD002608AE001E
:1009E8008E30AF01B002B01F062D3008803A8F3E1E
:1009F800031CDA2C0310AF0CAE0CAD0CAC0CB00F12
:100A0800FE2C142D183030020318DA2CB008031904
:100A1800142D0310AC0DAD0DAE0DAF0DB0030A2DA6
:100A28002B080319222DAC09AD09AE09AF09AC0A90
:100A38000319AD0A0319AE0A0319AF0A2F08A70054
:100A48002E08A6002D08A5002C08A40008002808D8
:100A58002704260425040319602DFA01FA0AA81BA5
:100A68003B2D0310A50DA60DA70DA80D322D2808A6
:100A78002C02031D492D27082B02031D492D26088A
:100A88002A02031D492D25082902031C5A2D250871
:100A9800A9022608031C260FAA022708031C270FF1
:100AA800AB022808031C280FAC020310A80CA70CE3
:100AB800A60CA50CFA0B3B2D2C08A8002B08A700A8
:100AC8002A08A6002908A50008008312A001A10190
:100AD800A201A30175087404730472040319A92DF3
:100AE800A401A40AF51B7E2D0310F20DF30DF40DDD
:100AF800F50D752D0310A00DA10DA20DA30D750800
:100B08007902031D912D74087802031D912D730835
:100B18007702031D912D72087602031CA32D72081B
:100B2800F6027308031C730FF7027408031C740F92
:100B3800F8027508031C750FF90220140310F50C50
:100B4800F40CF30CF20CA40B7E2D2308F5002208FC
:100B5800F4002108F3002008F20008007208F800E9
:100B68007308F9007408FA000310790D7A0D8312DE
:100B7800A500A508031DC52DF201F301F401F50137
:100B880008007508F8007608F9007708FA000310DD
:100B9800790D7A0DA400A4080319C02D7F30F3172E
:100BA800F401F617F701A001A101A201A301A50212
:100BB80098302407F800A5021830A4000310A00DEF
:100BC800A10DA20DA30D77087402031DF12D76085F
:100BD8007302031DF12D75087202031CFF2D7508A1
:100BE800F2027608031C760FF3027708031C770AD3
:100BF800F40220140310F20DF30DF40DA40BE22DF2
:100C0800A51F132E2508803A973E031CC02D0310FC
:100C1800A30CA20CA10CA00CA50F0B2E212E183092
:100C280025020318C02DA5080319212E0310A00DB5
:100C3800A10DA20DA30DA503172E2308F500220868
:100C4800F4002108F3002008F20008007408730477
:100C58007204031908008030F40608004108C70030
:100C68004208C8004308C9000310480D490DCC00CC
:100C78004408C7004508C8004608C9000310480DC5
:100C8800490DCB004C080319552E4B084C024B0854
:100C980003185D2EC7004C08C70219304702031C11
:100CA8005C2E4408C1004508C2004608C30008007D
:100CB8004B08031908004C084B0203186B2E4C080C
:100CC800C7004B08C702193047020318080006304E
:100CD800CA00C31BCA17C61B4A17C217C301C517C8
:100CE800C6014B084C020318922E0310C40DC50D03
:100CF800C60DCB034B084C0603198D2ECA034A08B0
:100D0800073903198D2E792E0310C30CC20CC10CA0
:100D1800CC0A4C084B060319AE2E882E4C084B0201
:100D28000318AE2E0310C10DC20DC30DCC034B0822
:100D38004C060319AA2ECA034A0807390319AA2E12
:100D4800962E0310C60CC50CC40CCB0A4C084B06D7
:100D5800031DA52ECA1FB92EFF30C106C206C30641
:100D6800C10A0319C20A0319C30A4A1FC42EFF3055
:100D7800C406C506C606C40A0319C50A0319C60A65
:100D8800CA014108C407420803110318420A031D97
:100D9800C507430803110318430A031DC607C61FE6
:100DA800E02EFF30C406C506C606C40A0319C50AE4
:100DB8000319C60ACA01CA0A4408F2004508F30022
:100DC8004608F4004C08F5004A08F6000A128A158D
:100DD80069277208C1007308C2007408C3000800BC
:100DE8008E30FA00FF3023050319012F0310A30CDE
:100DF800A20CA10CA00CFA0AF62E2008F200210879
:100E0800F3002208F4007A08F500F6010A128A15A0
:100E180069277208A0007308A1007408A2000800DE
:100E28008030CF065008C1005108C2005208C300E4
:100E38004D08C4004E08C5004F08C60032264108B8
:100E4800CD004208CE004308CF00080038088312BE
:100E5800DA000310DA0D03105A0D4F3E8400080023
:100E68000A308312A500A601A701A801831608006D
:100E780027088316AB00831226088316AA0083125C
:100E880025088316A9008312240808004108831640
:100E9800A500831242088316A6008312430883160E
:100EA800A7003308080072078312DA00003003181D
:100EB80001307307DB005A08D03E83160800F5009E
:100EC80083162B08F9002A08F8002908F7002808D3
:100ED800F60008008312A400831634088312A500C4
:100EE800831635088312A60008008312B200831601
:100EF80034088312B300831635088312B40008003F
:100F08008312DA00DB01DA1BDB035B08803ADC00C2
:100F180083160800031338088312DA00DB01DA1B92
:100F2800DB03831608007508AC007408AB0073086F
:100F3800AA007208A90008002508F2002608F30094
:100F48002708F400080083125B080318013EFF3EDF
:100F5800831608002408A8002508A9002608AA0066
:100F680008008316031308000B1DC02F83120313F8
:100F7800EB0A0319EC0A0B1171088A00700E830042
:100F8800FE0E7E0E0900EB01EC0183010A168A11A0
:020F9800712FB7
:1010CC0072308400000883120313A000840A000805
:1010DC00A100840A0008A200840A0008A3000310DF
:1010EC00220D230DAD00AD08031D8128F201F30183
:1010FC00F401F5010800753024210A128A15031039
:10110C00220D230DAC00AC0803197C28723084002E
:10111C008030840A840A80047230840A840075301A
:10112C00840A840A840A800184008030840A840A38
:10113C0080047530840A84007F30840A840A840A0F
:10114C008001A801A901AA01AB01AD02A0302C07B6
:10115C00A000AD022030AC0075300310A80DA90D15
:10116C00AA0DAB0D24210A128A15723084000008D6
:10117C00A400840A0008A500840A0008A600840ABA
:10118C000008A70023082702031DD62822082602E0
:10119C00031DD62821082502031DD6282008240269
:1011AC00031CF228753024210A128A15723084002F
:1011BC0020088002840A2108031C210F8002840A63
:1011CC002208031C220F8002840A2308031C230A12
:1011DC008002033084022814723084000310800DC6
:1011EC00840A800D840A800D840A800DAC0BB22811
:1011FC00AD1F0D292D08803A9F3E031C7C2803103F
:10120C00AB0CAA0CA90CA80CAD0F05291B2920307E
:10121C002D0203187C28AD0803191B290310A80DF7
:10122C00A90DAA0DAB0DAD0311292B08F5002A0849
:10123C00F4002908F3002808F200080084000008D4
:10124C00A000840A0008A100840A0008A200840AF5
:10125C000008A30008008312D6006E305602031C4F
:10126C00BC290330FB000A30F7006430F20056084A
:10127C0051220A128A1536220A128A155B270A1283
:10128C008A151C3E84000A168A1100200A128A153F
:10129C00B2000A168A1100200A128A15B3000A1627
:1012AC008A1100200A128A15B4000330FB00643046
:1012BC00F700560836220A128A155B270A128A157D
:1012CC00373E84000A168A1100200A128A15B500CE
:1012DC000A168A1100200A128A15B6000A168A11FB
:1012EC0000200A128A15B7000A128A15EC260A1277
:1012FC008A157C220A128A150330FB000A30F20090
:10130C00560851220A128A155B270A128A15013EC9
:10131C0084000A168A1100200A128A15B2000A16D5
:10132C008A1100200A128A15B3000A168A110020AD
:10133C000A128A1574220A128A15EC260A128A15C8
:10134C003208D0003308D1003408D2003F30B2014B
:10135C00B301B4005008B5005108B6005208B700EC
:10136C000A128A15EC260A128A156D2A0B305602BF
:10137C00031C102A0330FB000A30F20056085122DD
:10138C000A128A155B270A128A15013E84000A1676
:10139C008A1100200A128A15B2000A168A1100203E
:1013AC000A128A15B3000A168A1100200A128A152D
:1013BC00B4000330FB000A30F700560836220A123C
:1013CC008A155B270A128A151C3E84000A168A119C
:1013DC0000200A128A15B5000A168A1100200A127A
:1013EC008A15B6000A168A1100200A128A15B7004F
:1013FC000A128A15EC260A128A157C220A128A1500
:10140C003F30B201B30174220A128A15EC260A127B
:10141C008A156D2A3F30B201B301B4000330FB00D2
:10142C0056080A128A155B270A128A15013E840097
:10143C000A168A1100200A128A15B5000A168A119A
:10144C0000200A128A15B6000A168A1100200A1208
:10145C008A15B7000A128A15EC260A128A156D2A0B
:10146C00F800FA01770803194F2AF901F90AF71B5A
:10147C00422A0310F70D3C2A0310FA0D7708780264
:10148C00031C4C2A7708F8027A140310F70CF90B9A
:10149C00422A7A080800F4000830F500F6017408B6
:1014AC00F30007300310F30CFF3E0310031D592A01
:1014BC00760D7304F6000310F40D72087602031C0B
:1014CC00692A7208F602F50B552A760808003208CC
:1014DC00CD003308CE003408CF000800B400530808
:1014EC00B5005408B6005508B70008003208D30000
:1014FC003308D4003408D5000800F8007708031925
:10150C008A2A4030F9008B2AF9017808F907790802
:10151C008038F200003085230A128A1515240A122D
:10152C008A15003803190800942AFA00C12A0030E1
:10153C00F201F20A85230A128A1515240A128A1559
:10154C00003803190800A32A0030F701F70A832A90
:10155C007A083C240A128A15031C08007A08F20047
:10156C00013085230A128A1515240A128A150038AF
:10157C0003190800BA2A7A080A3A0319AA2A063A61
:10158C0003199D2AAE2A080003138811881008112C
:10159C0008128812081388138312033088118810DC
:1015AC000811F9008A30F8005630F700F70BDC2AE6
:1015BC00F80BDC2AF90BDC2AE32A3030F20000307D
:1015CC0085230A128A150230F9004530F800A9303B
:1015DC00F700F70BEF2AF80BEF2AF90BEF2AF62A94
:1015EC003030F200003085230A128A150230F900DF
:1015FC004530F800A930F700F70B022BF80B022B43
:10160C00F90B022B092B3230F200003085230A1221
:10161C008A150330F9008A30F8005630F700F70BC2
:10162C00152BF80B152BF90B152B1C2B0330F90074
:10163C008A30F8005630F700F70B222BF80B222BD0
:10164C00F90B222B292B0330F9008A30F800563085
:10165C00F700F70B2F2BF80B2F2BF90B2F2B362B0F
:10166C0015240A128A150038031D362B2830F20077
:10167C00003085230A128A1515240A128A1500389F
:10168C00031D422B0830F200003085230A128A1504
:10169C0015240A128A150038031D4E2B0C30F2004B
:1016AC00003085230A128A1515240A128A1500386F
:1016BC00031D5A2B0030F201F20A85230A128A15F7
:1016CC0015240A128A150038031D662B0430F2000B
:1016DC00003085230A128A1515240A128A1500383F
:1016EC00031D722B0030F201F20A85230A128A15AF
:1016FC0015240A128A150038031908007E2BF500F0
:10170C008316031308128812081388138312881087
:10171C007508031D88142130F300F30B932B51240F
:10172C0021300811F300F30B992B51248811720806
:10173C00F600760E0139F300730C031CA82B512410
:10174C000816AA2B51240812760EF300730C0139DB
:10175C00F400740C031CB52B51248816B72B5124A0
:10176C008812760E4A240A128A15031CC02B5124A7
:10177C000817C22B51240813760D760D0139F3008E
:10178C00730C031CCC2B51248817CE2B512488139B
:10179C002130F300F30BD02B512421308815F300AA
:1017AC00F30BD62B5124881176080139F300730CF6
:1017BC00031CE32B51240816E52B51240812760C3C
:1017CC000139F300730C031CEE2B51248816F02BFB
:1017DC0051248812760CF300730C0139F400740C4C
:1017EC00031CFB2B51240817FD2B51240813760CDA
:1017FC004A240A128A15031C062C51248817082C1B
:10180C00512488132130F300F30B0A2C512421307E
:10181C008815F300F30B102C512488110800831643
:10182C000313081688160817881783122130081519
:10183C008810F200F20B202C512421308815F20074
:10184C00F20B262C00305124881B0130F300213080
:10185C008811F200F20B302C512421308815F20043
:10186C00F20B362C5124881173080800F3007F30DA
:10187C00F20173020318482C20307302031C482C0D
:10188C00F201F20A720C0800F300F30C730C01392C
:10189C00F400740C0800831203130800FA01A11F52
:1018AC005E2CA009A109A00A0319A10AFA01FA0ADF
:1018BC002008F2002108F3008E30F401F5007A08BC
:1018CC00F60069277208A0007308A1007408A20032
:1018DC0008002608A9002708AA002808AB00031056
:1018EC002A0D2B0DB000B008031D802CA301A40100
:1018FC00A50108002308A9002408AA002508AB00AC
:10190C0003102A0D2B0DB100B108031D912CA3015E
:10191C00A401A50108008930AD01AE01AF0131076A
:10192C00A900B0022808B1002508B1068030B10525
:10193C001830A717A801A417A501AC000310AD0D12
:10194C00AE0DAF0D25082802031DB22C240827026A
:10195C00031DB22C23082602031CC02C2308A6024C
:10196C002408031C240FA7022508031C250AA8021F
:10197C002D140310A60DA70DA80DAC0BA42C2D082F
:10198C00F2002E08F3002F08F4003008F50031089F
:10199C00F60069277208A3007308A4007408A50058
:1019AC0008008312CB00CB1FA32DCB09CB0A4B080D
:1019BC00803A123E031C472D0A30CB270A128A1597
:1019CC00AF260A128A157308FB007208FA00692602
:1019DC000A128A15E0271C3E84000A168A11002080
:1019EC000A128A15B2000A168A1100200A128A15E8
:1019FC00B3000A168A1100200A128A15E8270A1267
:101A0C008A15FA1BFB0369260A128A15AF27373E83
:101A1C0084000A168A1100200A128A15B5000A16CB
:101A2C008A1100200A128A15B6000A168A110020A3
:101A3C000A128A15B700EC260A128A15B7270A1261
:101A4C008A15F41BF503AF260A128A15A727013E47
:101A5C0084000A168A1100200A128A15B2000A168E
:101A6C008A1100200A128A15B3000A168A11002066
:101A7C000A128A15F0270A128A15EC260A128A1500
:101A8C00C42F4B08803A753E031C8C2D0A30F20093
:101A9C00F3014B08F400F501F41BF503AF260A1211
:101AAC008A15A727013E84000A168A1100200A1203
:101ABC008A15B2000A168A1100200A128A15B30080
:101ACC000A168A1100200A128A15F8270A128A159A
:101ADC00FA1BFB0369260A128A15AF271C3E8400E9
:101AEC000A168A1100200A128A15B5000A168A11E4
:101AFC0000200A128A15B6000A168A1100200A1252
:101B0C008A15B700EC260A128A15C42F0330FB0085
:101B1C004B085B27013E84000A168A1100200A122A
:101B2C008A15C1000A168A1100200A128A15C200F1
:101B3C000A168A110020C30008004B08803A123E96
:101B4C00031C0D2E0A30CB270A128A15AF260A1257
:101B5C008A157308FB007208FA0069260A128A15A6
:101B6C00E027433E84000A168A1100200A128A15C7
:101B7C00B2000A168A1100200A128A15B3000A163E
:101B8C008A1100200A128A15E8270A128A15FA1BF4
:101B9C00FB0369260A128A15AF275E3E84000A16DB
:101BAC008A1100200A128A15B5000A168A11002023
:101BBC000A128A15B6000A168A1100200A128A1512
:101BCC00B700EC260A128A15B7270A128A15F41BDD
:101BDC00F503AF260A128A15A727283E84000A1699
:101BEC008A1100200A128A15B2000A168A110020E6
:101BFC000A128A15B3000A168A1100200A128A15D5
:101C0C00F0270A128A15EC260A128A15C42F4B08E3
:101C1C00803A753E031C522E0A30F200F3014B0839
:101C2C00F400F501F41BF503AF260A128A15A72759
:101C3C00283E84000A168A1100200A128A15B20066
:101C4C000A168A1100200A128A15B3000A168A1184
:101C5C0000200A128A15F8270A128A15FA1BFB03B0
:101C6C0069260A128A15AF27433E84000A168A1188
:101C7C0000200A128A15B5000A168A1100200A12D1
:101C8C008A15B6000A168A1100200A128A15B700A6
:101C9C00EC260A128A15C42F0330FB004B085B2775
:101CAC00283E84000A168A1100200A128A15C100E7
:101CBC000A168A1100200A128A15C2000A168A1105
:101CCC000020C30008008312A101F91F742EF8092B
:101CDC00F909F80A0319F90AA101A10AFB1F7D2EC3
:101CEC00FA09FB09FA0A0319FB0A0130A106A20141
:101CFC00A301790878040319A22EA001A00AF91BEC
:101D0C008B2E0310F80DF90D842E0310A20DA30DCC
:101D1C0079087B02031D942E78087A02031C9E2EF0
:101D2C007808FA027908031CFB03FB022214031047
:101D3C00F90CF80CA00B8B2E21080319AA2EA20962
:101D4C00A309A20A0319A30A2308F9002208F80020
:101D5C000800F701F51FB92EF409F509F40A031967
:101D6C00F50AF701F70AF31FC02EF209F309F20A7C
:101D7C000319F30A730872040319DF2EF601F60A2D
:101D8C00F31BCC2E0310F20DF30DC52E7308750248
:101D9C00031DD22E72087402031CDB2E7208F4028F
:101DAC007308031CF503F5020310F30CF20CF60B8D
:101DBC00CC2E77080319E72EF409F509F40A031958
:101DCC00F50A7508F3007408F20008003208B80030
:101DDC003308B9003408BA000310390D3A0DBB00B2
:101DEC00BB08031DFD2EB201B301B4010800350878
:101DFC00B8003608B9003708BA000310390D3A0D8F
:101E0C00C000C008031D0E2FB201B301B4010800BD
:101E1C0040087B3EBB073408C0003708C006803042
:101E2C00C0050730B317B617B701BC01BD01BE0121
:101E3C00BF00321C292F3508D6270A128A15031821
:101E4C00370A031DBE070310B40CB30CB20C0310FD
:101E5C00B50DB60DB70DBF0B1F2F0930BF00321CCF
:101E6C003F2F3508D6270A128A150318370A031D87
:101E7C00BE070310B40CB30CB20C0310BE0CBD0C9B
:101E8C00BC0CBF0B352F3C08F2003D08F3003E089C
:101E9C00F4003B08F5004008F60069277208B20010
:101EAC007308B3007408B4000800A100A0017B08FB
:101EBC002118A0070310FB0D0310A10CA108031D92
:101ECC005D2F2008080075080319712F740873041E
:101EDC007204031D7A2FF201F301F4010800F50AD4
:101EEC000310F40CF30CF20CFE3074050319892F5B
:101EFC00752FF50AF20A0319F30A0319F40A0310F1
:101F0C00F40CF30CF20CFF3074050319932F7F2F94
:101F1C00F5030310F20DF30DF40DF31F8E2F751C4A
:101F2C00F3130310F50C7508F900F801F7017708A5
:101F3C00F2047808F3047908F4047608031DF41706
:101F4C0008007208C4007308C5004408440744071D
:101F5C0008007808C6007908C700460846074607F7
:101F6C0008003208C8003308C9003408CA000A3017
:101F7C00F200F3014B08F400F50108003208C1002F
:101F8C003308C2003408C3000800F800F9014B08FC
:101F9C00F400F501F41BF5036430F200F3010800C2
:101FAC00BC07360803110318360A031DBD07370892
:101FBC00031108007808C4007908C50044084407D8
:101FCC0044070800B4006430F800F9014B08FA002B
:101FDC00FB010800B4004808B5004908B6004A08DF
:101FEC00B7000800B4000A30F800F9014B08FA00F9
:101FFC00FB01080010308A000408840A82070034B0
:10200C00003480343F34CD34CC343D34D734233495
:10201C003C34123483343A34B734D1343834C63483
:10202C0027343734383486343534C034D6343334EA
:10203C00CC342B343234703489343034E734DB34E0
:10204C002E34E5343C341E344234A2340D34003486
:10205C0080343F340034203441340034C8344234AA
:10206C0000347A34443440341C3446345034C33451
:10207C004734243474344934973418344B34BC34D6
:10208C00BE344C346B346E344E340334153450340B
:10209C007934AD346034F334493471340134003460
:1020AC00003400340A340034003400346434003416
:1020BC0000340034E8340334003400341034273452
:1020CC0000340034A03486340134003440344234BB
:1020DC000F34003480349634983400340034E134B6
:1020EC00F53405340034CA349A343B3476343A34FB
:0C20FC00253433342E3432346634003482
:102EE20083160317890188010A128A15CA220A1653
:102EF2008A11831609108116011681158312810128
:102F02008B160B118B1783120108E700E8016C087E
:102F1200E0006B08DF00E000DF015F08E70703184D
:102F2200E80A6008E8070D30E100AF30E000C13088
:102F3200DF00DF0B9A2FE00B9A2FE10B9A2F640030
:102F4200831203130108E900EA016C08E0006B0830
:102F5200DF00E000DF015F08E9070318EA0A600802
:102F6200EA076A08E6006908E5006708E5026808FA
:102F7200031CE603E602F030B201B3004230B400B3
:102F8200B430A301A4004330A5006608A10065087F
:102F9200A0000A128A1554240A168A112008A600D3
:102FA2002108A7002208A8000A128A156F240A160F
:102FB2008A112308B5002408B6002508B7000A12B2
:102FC2008A15EC260A168A113208E2003308E30059
:102FD2003408E4000030F701F70A0A128A15832246
:102FE2000A168A116208D7006308D8006408D9005B
:0E2FF20077300A128A110F200A168A11842FD6
:02400E00C2E30B
:00000001FF
