:060000000A128A110C280F
:10000800FE00030EF4000A08F5000A168A11702E85
:100018000A128A11D02F8E30AD01AC00AB1F2128F7
:10002800A809A909AA09AB09A80A0319A90A031961
:10003800AA0A0319AB0AAD01AD0AFF302B05031953
:100048002C280310AB0CAA0CA90CA80CAC0A21286C
:100058002808A0002908A1002A08A2002C08A3004B
:100068002D08A40037232008A8002108A900220889
:10007800AA0008002B08AE002C08AF002D08B0001D
:1000880003102F0D300DB500B508031D4F28A8012A
:10009800A901AA0108002808AE002908AF002A080B
:1000A800B00003102F0D300DB600B608031D6028F0
:1000B800A801A901AA0108008930B201B301B4015D
:1000C8003607AE00B5022D08B6002A08B6068030FD
:1000D800B6051830AC17AD01A917AA01B100031075
:1000E800B20DB30DB40D2A082D02031D812829086D
:1000F8002C02031D812828082B02031C8F2828089E
:10010800AB022908031C290FAC022A08031C2A0A7F
:10011800AD0232140310AB0DAC0DAD0DB10B73284D
:100128003208A0003308A1003408A2003508A30053
:100138003608A40037232008A8002108A9002208AF
:10014800AA0008008312D400D41F7229D409D40A43
:100158005408803A123E031C16290A3099230A12C1
:100168008A117D220A128A112108A9002008A800F4
:1001780038220A128A11AE231C3E84000A168A11FC
:1001880000200A128A11BB000A168A1100200A12DE
:100198008A11BC000A168A1100200A128A11BE238D
:1001A8000A128A11A81BA90338220A128A117D2370
:1001B800373E84000A168A1100200A128A11BE00EE
:1001C8000A168A1100200A128A11BF000A168A111B
:1001D80000200A128A11C000BA220A128A118C233E
:1001E8000A128A11A21BA3037D220A128A117523FF
:1001F800013E84000A168A1100200A128A11BB00E7
:100208000A168A1100200A128A11BC000A168A11DD
:1002180000200A128A11B6230A128A11BA220A1277
:100228008A11852B5408803A753E031C5B290A30D5
:10023800A000A1015408A200A301A21BA3037D22D0
:100248000A128A117523013E84000A168A110020B9
:100258000A128A11BB000A168A1100200A128A1192
:10026800BC000A168A1100200A128A11C6230A1233
:100278008A11A81BA90338220A128A117D231C3E61
:1002880084000A168A1100200A128A11BE000A1672
:100298008A1100200A128A11BF000A168A1100204A
:1002A8000A128A11C000BA220A128A11852B033059
:1002B800A90054082923013E84000A168A11002047
:1002C8000A128A11CA000A168A1100200A128A1113
:1002D800CB000A168A110020CC0008005408803A86
:1002E800123E031CDC290A3099230A128A117D2246
:1002F8000A128A112108A9002008A80038220A1227
:100308008A11AE23433E84000A168A1100200A127D
:100318008A11BB000A168A1100200A128A11BC0031
:100328000A168A1100200A128A11BE230A128A119B
:10033800A81BA90338220A128A117D235E3E840075
:100348000A168A1100200A128A11BE000A168A119A
:1003580000200A128A11BF000A168A1100200A1208
:100368008A11C000BA220A128A118C230A128A1131
:10037800A21BA3037D220A128A117523283E84003A
:100388000A168A1100200A128A11BB000A168A115D
:1003980000200A128A11BC000A168A1100200A12CB
:1003A8008A11B6230A128A11BA220A128A11852BD7
:1003B8005408803A753E031C212A0A30A000A10186
:1003C8005408A200A301A21BA3037D220A128A11CA
:1003D8007523283E84000A168A1100200A128A1101
:1003E800BB000A168A1100200A128A11BC000A16DC
:1003F8008A1100200A128A11C6230A128A11A81B20
:10040800A90338220A128A117D23433E84000A1662
:100418008A1100200A128A11BE000A168A110020C9
:100428000A128A11BF000A168A1100200A128A11BC
:10043800C000BA220A128A11852B0330A900540879
:100448002923283E84000A168A1100200A128A11DC
:10045800CA000A168A1100200A128A11CB000A164D
:100468008A110020CC000800AB01A71F422AA60968
:10047800A709A60A0319A70AAB01AB0AA91F4B2AA9
:10048800A809A909A80A0319A90A0130AB06AC01F1
:10049800AD01270826040319702AAA01AA0AA71B76
:1004A800592A0310A60DA70D522A0310AC0DAD0D45
:1004B80027082902031D622A26082802031C6C2A21
:1004C8002608A8022708031CA903A9022C14031054
:1004D800A70CA60CAA0B592A2B080319782AAC09D1
:1004E800AD09AC0A0319AD0A2D08A7002C08A6000F
:1004F8000800A501A31F872AA209A309A20A0319B4
:10050800A30AA501A50AA11F8E2AA009A109A00A6C
:100518000319A10A210820040319AD2AA401A40A79
:10052800A11B9A2A0310A00DA10D932A21082302CA
:10053800031DA02A20082202031CA92A2008A202BF
:100548002108031CA303A3020310A10CA00CA40BF5
:100558009A2A25080319B52AA209A309A20A031988
:10056800A30A2308A1002208A00008003B08C10034
:100578003C08C2003D08C3000310420D430DC400EF
:10058800C408031DCB2ABB01BC01BD0108003E08FD
:10059800C1003F08C2004008C3000310420D430DCC
:1005A800C900C908031DDC2ABB01BC01BD01080044
:1005B80049087B3EC4073D08C9004008C906803089
:1005C800C9050730BC17BF17C001C501C601C7015F
:1005D800C8003B1CF72A3E08A4230A128A110318F4
:1005E800400A031DC7070310BD0CBC0CBB0C03104D
:1005F800BE0DBF0DC00DC80BED2A0930C8003B1C4D
:100608000D2B3E08A4230A128A110318400A031D61
:10061800C7070310BD0CBC0CBB0C0310C70CC60CE1
:10062800C50CC80B032B4508A0004608A1004708C5
:10063800A2004408A3004908A40037232008BB00EF
:100648002108BC002208BD000800AB00AA01290847
:100658002B18AA070310A90D0310AB0CAB08031D38
:100668002B2B2A080800230803193F2B22082104F2
:100678002004031D482BA001A101A2010800A30A20
:100688000310A20CA10CA00CFE3022050319572B55
:10069800432BA30AA00A0319A10A0319A20A0310EB
:1006A800A20CA10CA00CFF3022050319612B4D2BC5
:1006B800A3030310A00DA10DA20DA11F5C2B231CE9
:1006C800A1130310A30C2308A700A601A501250860
:1006D800A0042608A1042708A2042408031DA217C1
:1006E80008002008CD002108CE004D084D074D0711
:1006F80008002608CF002708D0004F084F074F07EB
:1007080008003B08CA003C08CB003D08CC000800A4
:100718003B08D1003C08D2003D08D3000A30A000B5
:10072800A1015408A200A3010800A600A7015408CB
:10073800A200A301A21BA3036430A000A10108002A
:10074800C5073F08031103183F0A031DC6074008E1
:10075800031108002608CD002708CE004D084D07D4
:100768004D070800BD005108BE005208BF005308DD
:10077800C0000800BD006430A600A7015408A80006
:10078800A9010800BD000A30A600A7015408A80066
:10079800A9010800A60025080319D52B4030A70099
:1007A800D62BA7012608A70727088038A000003005
:1007B800D3240A128A1162250A128A1100380319F1
:1007C8000800DF2BA8000C2C0030A001A00AD324BD
:1007D8000A128A1162250A128A11003803190800C0
:1007E800EE2B0030A501A50ACE2B280889250A1270
:1007F8008A11031C08002808A0000130D3240A121B
:100808008A1162250A128A11003803190800052C7A
:1008180028080A3A0319F52B063A0319E82BF92B8D
:100828000800031388118810081108128812081389
:10083800881383120330881188100811A7008A30A2
:10084800A6005630A500A50B272CA60B272CA70B16
:10085800272C2E2C9E250A128A11D3240A128A11BB
:100868000230A7004530A600A930A500A50B3A2CF8
:10087800A60B3A2CA70B3A2C412C9E250A128A115A
:10088800D3240A128A110230A7004530A600A930E5
:10089800A500A50B4D2CA60B4D2CA70B4D2C542CAD
:1008A8003230A325A0000030D3240A128A11033065
:1008B800A7008A30A6005630A500A50B612CA60B10
:1008C800612CA70B612C682C0330A325A7008A3064
:1008D800A6005630A500A50B6F2CA60B6F2CA70BF6
:1008E8006F2C762C0330A325A7008A30A60056303B
:1008F800A500A50B7D2CA60B7D2CA70B7D2C842C8D
:1009080062250A128A110038031D842C2830A000A1
:100918000030D3240A128A1162250A128A1100387B
:10092800031D902C0830A0000030D3240A128A112D
:1009380062250A128A110038031D9C2C0C30A00075
:100948000030D3240A128A1162250A128A1100384B
:10095800031DA82C0030A001A00AD3240A128A1172
:1009680062250A128A110038031DB42C0430A00035
:100978000030D3240A128A1162250A128A1100381B
:10098800031DC02C0030A001A00AD3240A128A112A
:1009980062250A128A11003803190800CC2CA3001A
:1009A80083160812881208138813831288102308E4
:1009B800031D88142130A100A10BE02CA3252130B0
:1009C8000811A100A10BE62CA32588112008A4007A
:1009D800240E0139A100210C031CF52CA3250816AF
:1009E800F72CA3250812240EA100210C0139A2001E
:1009F800220C031C022DA3258816042DA32588127A
:100A0800240E97250A128A11031C0D2DA3250817F9
:100A18000F2DA3250813240D240D0139A100210C45
:100A2800031C192DA32588171B2DA32588132130F6
:100A3800A100A10B1D2DA32521308815A100A10B14
:100A4800232DA325881124080139A100210C031C9A
:100A5800302DA3250816322DA3250812240C0139A0
:100A6800A100210C031C3B2DA32588163D2DA32591
:100A78008812240CA100210C0139A200220C031CAD
:100A8800482DA32508174A2DA3250813240C9725BC
:100A98000A128A11031C532DA3258817552DA32547
:100AA80088132130A100A10B572DA32521308815CB
:100AB800A100A10B5D2DA32588110800831603133F
:100AC8000816881608178817831221300815881009
:100AD800A000A00B6D2DA32521308815A000A00B28
:100AE800732D0030A325881B0130A1002130881107
:100AF800A000A00B7D2DA32521308815A000A00BF8
:100B0800832DA325881121080800A1007F30A001AA
:100B180021020318952D20302102031C952DA001D8
:100B2800A00A200C0800A100A10C210C0139A20088
:100B3800220C0800303083120313A0000034831203
:100B4800031308008312DF006E305F02031C312E8E
:100B58000330A9000A30A5006430A0005F08C6264B
:100B68000A128A11AB260A128A1129230A128A113B
:100B78001C3E84000A168A1100200A128A11BB0042
:100B88000A168A1100200A128A11BC000A168A1154
:100B980000200A128A11BD000330A9006430A500A4
:100BA8005F08AB260A128A1129230A128A11373ED6
:100BB80084000A168A1100200A128A11BE000A1639
:100BC8008A1100200A128A11BF000A168A11002011
:100BD8000A128A11C0000A128A11BA220A128A114C
:100BE800F1260A128A110330A9000A30A0005F0812
:100BF800C6260A128A1129230A128A11013E840084
:100C08000A168A1100200A128A11BB000A168A11D4
:100C180000200A128A11BC000A168A1100200A1242
:100C28008A11E9260A128A11BA220A128A113B0885
:100C3800D9003C08DA003D08DB003F30BB01BC01AD
:100C4800BD005908BE005A08BF005B08C0000A1260
:100C58008A11BA220A128A11E22E0B305F02031C93
:100C6800852E0330A9000A30A0005F08C6260A12A4
:100C78008A1129230A128A11013E84000A168A1150
:100C880000200A128A11BB000A168A1100200A12D3
:100C98008A11BC000A168A1100200A128A11BD00A6
:100CA8000330A9000A30A5005F08AB260A128A1192
:100CB80029230A128A111C3E84000A168A11002070
:100CC8000A128A11BE000A168A1100200A128A1115
:100CD800BF000A168A1100200A128A11C0000A12DF
:100CE8008A11BA220A128A11F1260A128A113F3091
:100CF800BB01BC01E9260A128A11BA220A128A111A
:100D0800E22E3F30BB01BC01BD000330A9005F08E3
:100D18000A128A1129230A128A11013E84000A162E
:100D28008A1100200A128A11BE000A168A110020B0
:100D38000A128A11BF000A168A1100200A128A11A3
:100D4800C0000A128A11BA220A128A11E22EA600DB
:100D5800A80125080319C42EA701A70AA51BB72EA9
:100D68000310A50DB12E0310A80D25082602031C9B
:100D7800C12E2508A60228140310A50CA70BB72E10
:100D880028080800A2000830A300A4012208A10036
:100D980007300310A10CFF3E0310031DCE2E240DB7
:100DA8002104A4000310A20D20082402031CDE2E37
:100DB8002008A402A30BCA2E240808003B08D6006A
:100DC8003C08D7003D08D8000800BD005C08BE00FC
:100DD8005D08BF005E08C00008003B08DC003C0856
:100DE800DD003D08DE0008008030D8065908CA003A
:100DF8005A08CB005B08CC005608CD005708CE0037
:100E08005808CF000E274A08D6004B08D7004C08D0
:100E1800D80008004A08D0004B08D1004C08D2007E
:100E28000310510D520DD5004D08D0004E08D100C9
:100E38004F08D2000310510D520DD4005508031964
:100E4800312F5408550254080318392FD00055087B
:100E5800D00219305002031C382F4D08CA004E0822
:100E6800CB004F08CC0008005408031908005508A7
:100E780054020318472F5508D0005408D0021930DF
:100E88005002031808000630D300CC1BD317CF1B21
:100E98005317CB17CC01CE17CF01540855020318AE
:100EA8006E2F0310CD0DCE0DCF0DD403540855066B
:100EB8000319692FD303530807390319692F552FCD
:100EC8000310CC0CCB0CCA0CD50A550854060319D0
:100ED8008A2F642F5508540203188A2F0310CA0D4D
:100EE800CB0DCC0DD503540855060319862FD30313
:100EF800530807390319862F722F0310CF0CCE0C15
:100F0800CD0CD40A55085406031D812FD31F952FE5
:100F1800FF30CA06CB06CC06CA0A0319CB0A031946
:100F2800CC0A531FA02FFF30CD06CE06CF06CD0A20
:100F38000319CE0A0319CF0AD3014A08CD074B0873
:100F4800031103184B0A031DCE074C08031103189D
:100F58004C0A031DCF07CF1FBC2FFF30CD06CE068E
:100F6800CF06CD0A0319CE0A0319CF0AD301D30A33
:100F78004D08A0004E08A1004F08A2005508A30084
:100F88005308A4000A128A1137232008CA0021082E
:100F9800CB002208CC000800F601F701E901EA01BC
:100FA800EB01EC01ED01EE01EF018316B901BA0185
:0A0FB800BB0183010A168A11A22E64
:10100C008316AC006030A40083162C08AC0A840054
:10101C000A168A1100200A128A15B800B80803199A
:10102C000800253A03191F2838087F250A128A154B
:10103C000A28B101B201AD01AE0126282D15AC0A6A
:10104C002C0884000A168A1100200A128A15303ADC
:10105C000319242831282C0884000A168A11002030
:10106C000A128A15EF250A128A15031C65288316A5
:10107C00B101B201831632088312A1008316310824
:10108C0080270A128A15FE2583162C0884000A165E
:10109C008A1100200A128A1537270A128A15B10004
:1010AC006B27B200AC0A2C0884000A168A110020A7
:1010BC000A128A15EF250A128A150318402883167E
:1010CC002C0884000A168A1100200A128A152E3A5E
:1010DC00031D9C282E17AC0AB601B7012C088400FE
:1010EC000A168A1100200A128A15EF250A128A158F
:1010FC00031CA528831637088312A1008316360813
:10110C0080270A128A15FE2583162C0884000A16DD
:10111C008A1100200A128A1537270A128A15B6007E
:10112C006B270A128A15B700AC0A7428B601B701EE
:10113C002E16A5282E15B928C030AD04B928831653
:10114C002C08AC0A84000A168A1100200A128A158F
:10115C00B800003A03197E2D663A0319A028133AF9
:10116C000319A2280A2883120730E40183162E05DE
:10117C008312E50064040319412C83162E1EC92822
:10118C000630B600B7012408840083130008B300AE
:10119C00840A0008B400840A0008B5000330A407D0
:1011AC0033088312A000831634088312A10083161F
:1011BC0035088312A200A301A401A501C3250A12BC
:1011CC008A1503180529831633088312A000831689
:1011DC0034088312A100831635088312A200BA26A4
:1011EC000A128A1520088316B3008312210883166D
:1011FC00B400831222088316B5000330AD048316A5
:10120C00AF01B0013508340433040319AF29B330EE
:10121C00840079270A128A15840A0008E600840AD9
:10122C000008E7000F300310E70CE60CE50CE40CAB
:10123C00FF3E031D192965088316B000831264084C
:10124C008316AF008230B001AF07031CB003FF3030
:10125C00AF07031CB00303308312A000A101831657
:10126C0030088312A30083162F088312A200FE25D8
:10127C0021088316B000831220088316AF000A30B1
:10128C008312A600A701831630088312A9008316C7
:10129C002F088312A8000A128A1138220A128A1502
:1012AC0027088316B000831226088316AF00B01FE0
:1012BC006329FF30AF07031CB0032F03FF3A0A1258
:1012CC008A11A6200A128A1512270A128A15582783
:1012DC00831625088312BE00831626088312BF00CE
:1012EC00831627088312C0000A128A11BA220A1226
:1012FC008A153B088316A50083123C088316A600AA
:10130C0083123D088316A700FE260A128A15803028
:10131C00A301A4003F30A500C3250A128A150318A7
:10132C009D29FF308316AF07031CB003AF2983162A
:10133C00FE260A128A152030A301A4004130A50014
:10134C00C3250A128A15031CAF298316AF0A031989
:10135C00B00A83163708803AFF0080307F02031DE5
:10136C00B9290D3036020318E429862736080A12EB
:10137C008A11A6250A128A155608CA005708CB00EE
:10138C005808CC00831633088312CD00831634081A
:10139C008312CE00831635088312CF000A128A11ED
:1013AC000E270A128A154A088316B30083124B08BB
:1013BC008316B40083124C088316B50086273008B8
:1013CC00803AFF0080307F02031DEE290A302F0285
:1013DC0003180F2A86273508340433040319612AAD
:1013EC00330843270A128A1517260A128A15310860
:1013FC0030042F042E04031D612A83163008803A12
:10140C00FF0080307F02031D0D2A02302F02031CC7
:10141C00612A8627FE260A128A157030A3008930AD
:10142C00A4004030A500C3250A128A150318202AEF
:10143C00F730212AF8308316AF07031CB0032F08AE
:10144C000A128A11A6200A128A1512270A128A1564
:10145C00A000831634088312A1008316350883126A
:10146C00A200831625088312A30083162608831274
:10147C00A400831627088312A50089270A128A154F
:10148C0023088316A300831222088316A20083125A
:10149C0021088316A100831220088316A0002308BC
:1014AC00AB002208AA002108A9002008A800B3015B
:1014BC00B401B501A22A8627330843270A128A15DC
:1014CC0017260A128A1520270A128A158316A800D5
:1014DC002B088312AB0083162A088312AA008316EA
:1014EC0029088312A900831628088312A800C22693
:1014FC002808D6002908D7002A08D80083163308F4
:10150C008312D900831634088312DA008316350847
:10151C008312DB000A128A11F8260A128A15560861
:10152C008316B300831257088316B400831258082D
:10153C008316B500AF01B001B801B80AF4260A163B
:10154C008A1100200A128A15E5000A168A11002059
:10155C000A128A15E6000A168A1100200A128A1548
:10156C00E7000A168A1100200A128A15E800831671
:10157C002B02031DD12A8312670883162A02031D2E
:10158C00D12A8312660883162902031DD12A8312DD
:10159C00650883162802031CD82AB80A38080A3AA8
:1015AC00031DA42A360838078312E4008316370873
:1015BC000318370AB81BFF3E8312E50083162F0869
:1015CC0083126407E600831630080318300A83126E
:1015DC006507E70066088316B10283126708831655
:1015EC00031CB203B202370836040319012BFF3077
:1015FC00B107031CB2032D0803390319092BFF3063
:10160C00B107031CB2032D19152B2A2B30307F2563
:10161C000A128A15FF308316B107031CB203320875
:10162C00803AFF0080307F02031D1E2B01303102F7
:10163C00031C682B0C2B20307F250A128A15FF30D7
:10164C008316B107031CB2033208803AFF008030C6
:10165C007F02031D332B013031020318212B862707
:10166C002D0803390319682B2D30652B0A270A1214
:10167C008A15F4260A168A1100200A128A15A0006F
:10168C000A168A1100200A128A15A1000A168A115C
:10169C0000200A128A15A2000A168A1100200A12CA
:1016AC008A15E2260A128A1572260A128A152E2724
:1016BC000A128A1585250A128A152D08303E7F25B7
:1016CC000A128A158627B803380F3C2B3008803A4B
:1016DC00FF0080307F02031D752B01302F02031C8D
:1016EC00812B30307F250A128A15FF308316AF0705
:1016FC00031CB0036C2B86273708803AFF00803020
:10170C007F02031D8B2B09303602031C902B0830F3
:10171C008627922B86273608B8008312E400E50151
:10172C00E41BE5038316B602831265088316031CBB
:10173C00B703B70238080319A52B2E307F25831663
:10174C0038080A128A11A6200A128A154A08BE0005
:10175C004B08BF004C08C00083163308831258276F
:10176C000A128A11BA220A128A153B08AE003C08EA
:10177C00AF003D08B00017260A128A1520270A125E
:10178C008A152E2C0A270A128A15F4260A168A1193
:10179C0000200A128A15A0000A168A1100200A12CB
:1017AC008A15A1000A168A1100200A128A15A200B5
:1017BC000A168A1100200A128A15E2260A128A15C4
:1017CC0072260A128A152E270A128A1585250A12E4
:1017DC008A152D08303E7F250A128A158316F426A9
:1017EC000A168A1100200A128A15AD000A168A11EF
:1017FC0000200A128A15AE000A168A1100200A125D
:10180C008A15AF000A168A1100200A128A15B00038
:10181C0083162B088312B40083162A088312B30094
:10182C00831629088312B200831628088312B1008C
:10183C0085250A128A1530088316AB0083122F08EF
:10184C008316AA0083122E088316A90083122D0872
:10185C008316A800B803380FC82B370836040319B1
:10186C000A2830307F250A128A15FF308316B607F6
:10187C00031CB703332C83162408840083137927A5
:10188C000A128A1564088316A80083126508831649
:10189C00A900AA01AB01A40AA40A37083604031D47
:1018AC005F2C2B082A04290428040319B60A0319EF
:1018BC00B70AB801B80AF4260A168A1100200A12CF
:1018CC008A15E5000A168A1100200A128A15E6000C
:1018DC000A168A1100200A128A15E7000A168A11C4
:1018EC0000200A128A15E80083162B02031D8E2C89
:1018FC008312670883162A02031D8E2C8312660836
:10190C0083162902031D8E2C831265088316280268
:10191C00031C952CB80A38080A3A031D612C3808A8
:10192C004E270A128A153708803A83126602031D65
:10193C00A32C83163608831264020318A92C86275D
:10194C003608B800C12C831662270A128A1537088C
:10195C00803A8312E6006508803A6602031DB92CB2
:10196C006408831636020318C12C86273808B60083
:10197C00B701B61BB7038627320831040319CE2CE6
:10198C002D0803390319CE2CFF30B107031CB20309
:10199C002E1FEB2C3708803A8312E4008316320892
:1019AC00803A83126402031DDE2C83163108360242
:1019BC000318E82C86273608B1023708031CB2033B
:1019CC00B202EB2C8627B101B20138084E270A125D
:1019DC008A153208803A83126602031DF92C83168D
:1019EC003108831264020318072D831662270A122A
:1019FC008A15B102831265088316031CB203B20266
:101A0C000A2D8627B101B2012D1D232D2D08033976
:101A1C000319142D2D307F250A128A1583163208CE
:101A2C00310403193C2D30307F250A128A15FF3002
:101A3C008316B107031CB203152D320831040319A8
:101A4C00342D20307F250A128A15FF308316B107FA
:101A5C00031CB20332083104031D272D2D08033952
:101A6C0003193C2D2D307F250A128A15FF30831661
:101A7C00B607031CB703360A0319370A03190A28D9
:101A8C000A308312AD00AE01AF01B00183163608E7
:101A9C008312E4000310E40D0310640D4F3E840028
:101AAC000A168A1100200A128A15A0000A168A1139
:101ABC0000200A128A15A1000A168A1100200A12A7
:101ACC008A15A2000A168A1100200A128A15E2262B
:101ADC000A128A1572260A128A152E270A128A15DC
:101AEC0085250A128A152D08303E8316B800392D2B
:101AFC00080083120313A9000A128A11E62B30087E
:101B0C002F042E042D040319BA2DB501B50AB01BF0
:101B1C00952D0310AD0DAE0DAF0DB00D8C2D300805
:101B2C003402031DA32D2F083302031DA32D2E08F1
:101B3C003202031DA32D2D083102031CB42D2D08D8
:101B4C00B1022E08031C2E0FB2022F08031C2F0FFC
:101B5C00B3023008031C300FB4020310B00CAF0CEE
:101B6C00AE0CAD0CB50B952D3408B0003308AF009E
:101B7C003208AE003108AD000800A21FD22D20089B
:101B8C00003CA0002108031C210F003CA1002208EE
:101B9C00031C220F803CA200A51FE12D2308003C52
:101BAC00A3002408031C240F003CA4002508031CDC
:101BBC00250F803CA5008030A206A5062508220230
:101BCC00031D080024082102031D0800230820021D
:101BDC0008008312A1003A30A00121020318FC2D49
:101BEC0030302102031CFC2DA001A00A200C08009F
:101BFC00A401A501201C082E2208A4070318A50A7D
:101C0C002308A5070310A20DA30D0310A10CA00C13
:101C1C0021082004031D002E2508A1002408A00083
:101C2C00080072270A128A150310330D340DBA00FE
:101C3C00BA08031D262EAE01AF01B001B101080098
:101C4C0072270A128A1517300310B40CB30CB20C9D
:101C5C00FF3E031D2A2E3208B500AF17B0012E0827
:101C6C00B6002F08B7003008B8008E30B901BA02A0
:101C7C00BA1F4D2E3A08803A8F3E031C212E0310BA
:101C8C00B90CB80CB70CB60CBA0F452E5B2E18302D
:101C9C003A020318212EBA0803195B2E0310B60D55
:101CAC00B70DB80DB90DBA03512E35080319692EAD
:101CBC00B609B709B809B909B60A0319B70A03195D
:101CCC00B80A0319B90A3908B1003808B000370846
:101CDC00AF003608AE000800A801A901AA01AB01AB
:101CEC0023082204210420040319B12EAC01AC0AF0
:101CFC00A31B862E0310A00DA10DA20DA30D7D2EEE
:101D0C000310A80DA90DAA0DAB0D23082702031D66
:101D1C00992E22082602031D992E21082502031D47
:101D2C00992E20082402031CAB2E2008A4022108A3
:101D3C00031C210FA5022208031C220FA602230854
:101D4C00031C230FA70228140310A30CA20CA10C34
:101D5C00A00CAC0B862E2B08A3002A08A200290885
:101D6C00A1002808A000080022082104200403195F
:101D7C0008008030A20608008E30AC00FF302B0526
:101D8C000319CF2E0310AB0CAA0CA90CA80CAC0A8F
:101D9C00C42E2808A0002908A1002A08A2002C089B
:101DAC00A300A4010A128A1137232008A8002108D5
:101DBC00A9002208AA000800A30083162B0883128E
:101DCC00A70083162A088312A600831629088312FB
:101DDC00A500831628088312A40008003808831273
:101DEC00E4000310E40D0310640D4F3E8400080062
:101DFC0025088312A000831626088312A1008316DF
:101E0C0027088312A20008000A308312AD00AE012D
:101E1C00AF01B001831608004A088316A50083128F
:101E2C004B088316A60083124C088316A7003308B0
:101E3C008312080031088316AB0083123008831616
:101E4C00AA0083122F088316A90083122E080800FB
:101E5C002308B4002208B3002108B2002008B10006
:101E6C00080083122007E40000300318013021071A
:101E7C00E5006408D03E831608008312AE0083167A
:101E8C0034088312AF00831635088312B0000800A3
:101E9C008312E400E501E41BE5036508803AE600E3
:101EAC0083160800BB00831634088312BC0083160B
:101EBC0035088312BD000800031338088312E400B0
:101ECC00E501E41BE503831608008312650803187B
:101EDC00013EFF3E831608002E08B2002F08B30007
:101EEC003008B400080000088312E400840A0008DB
:101EFC00E50008008312A0000A30A200A30108002C
:101F0C008316031308002008A6002108A700220846
:101F1C00A8000310270D280DAE00AE08031D9B2F43
:101F2C00A001A101A201A30108002308A600240816
:101F3C00A7002508A8000310270D280DAD00AD083B
:101F4C000319962F7F30A117A201A417A501A9018F
:101F5C00AA01AB01AC01AE0298302D07A600AE026F
:101F6C001830AD000310A90DAA0DAB0DAC0D250852
:101F7C002202031DC72F24082102031DC72F23088B
:101F8C002002031CD52F2308A0022408031C240FB5
:101F9C00A1022508031C250AA20229140310A00D76
:101FAC00A10DA20DAD0BB82FAE1FE92F2E08803A54
:101FBC00973E031C962F0310AC0CAB0CAA0CA90C6F
:101FCC00AE0FE12FF72F18302E020318962FAE0804
:101FDC000319F72F0310A90DAA0DAB0DAC0DAE0311
:101FEC00ED2F2C08A3002B08A2002A08A100290819
:101FFC00A000080010308A000408840A820700340C
:10200C00003480343F34CD34CC343D34D734233495
:10201C003C34123483343A34B734D1343834C63483
:10202C0027343734383486343534C034D6343334EA
:10203C00CC342B343234703489343034E734DB34E0
:10204C002E34E5343C341E344234A2340D34003486
:10205C0080343F340034203441340034C8344234AA
:10206C0000347A34443440341C3446345034C33451
:10207C004734243474344934973418344B34BC34D6
:10208C00BE344C346B346E344E340334153450340B
:10209C007934AD346034F334493471340134003460
:1020AC00003400340A340034003400346434003416
:1020BC0000340034E8340334003400341034273452
:1020CC0000340034A03486340134003440344234BB
:1020DC000F34003480349634983400340034E134B6
:1020EC00F53405340034CA349A343B3478347534BE
:1020FC006E3467343A342034253430343534753406
:10210C00003466343A342034253433342E343234AB
:04211C0066340034F1
:102CE000831203130C1D8D2E1608F1001508F00039
:102CF0007608F0027708031CF103F10294267008AD
:102D0000E9007108EA000030EA1BFF30EB00EC003C
:102D10001608F7001508F6000C1175088A00740EE5
:102D20008300FE0E7E0E0900F11F08007009F200FC
:102D30007109F300F20A0319F30A7208F00073082C
:102D4000F100080083160317890188010A128A110D
:102D500015240A168A118316091083120914831682
:102D600005300715831297009501960183160C15FF
:102D700083120C110B178B17901090121012101554
:102D80008F018E0110131014C0308312BB00563017
:102D9000BC003430BD006C08AB006B08AA006A08A8
:102DA000A9006908A8000A128A110F200A168A11C0
:102DB0002808BE002908BF002A08C0000A128A118C
:102DC000BA220A168A113B088316B90083123C08FE
:102DD0008316BA0083123D088316BB00390883129C
:102DE000A80083163A088312A90083163B088312B1
:102DF000AA008030AB01AC004030AD000A128A114D
:102E00003E200A168A112808ED002908EE002A083B
:102E1000EF000030A5010A128A11CE230A168A118A
:102E20006C08E3006B08E2006A08E1006908E00052
:102E300077300A128A1506200A168A11831200308A
:102E4000A501A50A0A128A11CE230A168A116D0855
:102E5000E0006E08E1006F08E20082300A128A1575
:102E600006200A168A11C42E20308400831300081D
:102E700083120313A600840A0008A700840A00082E
:102E8000A800840A0008A9000310280D290DB3002A
:102E9000B308031D502FA001A101A201A301080046
:102EA0002330F3270A168A110310280D290DB200CA
:102EB000B20803194B2F203084008030840A840A22
:102EC00080042030840A84002330840A840A840A1F
:102ED000800184008030840A840A80042330840ABC
:102EE00084007F30840A840A840A8001AE01AF0125
:102EF000B001B101B302A0303207A600B302203006
:102F0000B20023300310AE0DAF0DB00DB10DF3279D
:102F10000A168A11203084000008AA00840A0008DA
:102F2000AB00840A0008AC00840A0008AD00290840
:102F30002D02031DA52F28082C02031DA52F2708ED
:102F40002B02031DA52F26082A02031CC12F2330A4
:102F5000F3270A168A112030840026088002840A8A
:102F60002708031C270F8002840A2808031C280F47
:102F70008002840A2908031C290A80020330840283
:102F80002E14203084000310800D840A800D840AE2
:102F9000800D840A800DB20B812FB31FDC2F330804
:102FA000803A9F3E031C4B2F0310B10CB00CAF0CAA
:102FB000AE0CB30FD42FEA2F2030330203184B2F5F
:102FC000B3080319EA2F0310AE0DAF0DB00DB10D0C
:102FD000B303E02F3108A3003008A2002F08A1009E
:102FE0002E08A000080084000008A600840A00083B
:102FF000A700840A0008A800840A0008A9000800A5
:02400E00C2E30B
:00000001FF
