:060000000A128A110C280F
:10000800FE00030EF0000A08F1000A128A119B2F65
:100018000A128A11B22F8316AC005630A400982712
:100028002C08AC0A84000A168A1100200A128A11C8
:10003800B800B80803190800253A03192828380811
:100048004D250A128A111328B101B201AD01AE0182
:100058002F282D15AC0A2C0884000A168A110020B6
:100068000A128A11303A03192D283A282C088400DC
:100078000A168A1100200A128A11BB250A128A114F
:10008800031C6A28B101B2013208F3003108F200FA
:100098000A30F400F501C9252C0884000A168A11D3
:1000A80000200A128A1147270A128A11B1008327F1
:1000B800B200AC0A2C0884000A168A1100200A1221
:1000C8008A11BB250A128A11031848282C088400B3
:1000D8000A168A1100200A128A112E3A031D9D2839
:1000E8002E17AC0AB601B7012C0884000A168A112B
:1000F80000200A128A11BB250A128A11031CA6289D
:100108003708F3003608F2000A30F400F501C92573
:100118002C0884000A168A1100200A128A1147271F
:100128000A128A11B60083270A128A11B700AC0A8C
:100138007828B601B7012E16A6282E15B928C03082
:10014800AD04B9282C08AC0A84000A168A110020CC
:100158000A128A11B800003A03194C2D663A03199D
:10016800A128133A0319A328132883120730DA01A8
:1001780083162E058312DB005A0403190F2C8316ED
:100188002E1EC9280630B600B70124088400831340
:100198000008B300840A0008B400840A0008B50007
:1001A8000330A4073308F2003408F3003508F400DC
:1001B800F501F601F7018F250A128A110318F528AF
:1001C8003308F2003408F3003508F400FE260A125A
:1001D8008A117208B3007308B4007408B5000330BC
:1001E800AD04AF01B00135083404330403198C2978
:1001F800B330840091270A128A11840A0008DC00AF
:10020800840A0008DD000F300310DD0CDC0CDB0C69
:10021800DA0CFF3E031D08295B088316B000831221
:100228005A088316AF008230B001AF07031CB00331
:10023800FF30AF07031CB0030330F200F3013008AE
:10024800F5002F08F400C9257308B0007208AF0044
:100258000A30F800F9013008FB002F08FA000A12EA
:100268008A1569260A128A1179088316B000780857
:10027800AF00B01F4329FF30AF07031CB0032F03A3
:10028800FF3A0A128A15D7240A128A1131270A124C
:100298008A115E27831625088312B4008316260860
:1002A8008312B500831627088312B6000A128A152E
:1002B800EC260A128A1131088316A5008312320827
:1002C8008316A600831233088316A7007C270A1218
:1002D8008A118030F501F6003F30F7008F250A12A9
:1002E8008A1103187C29FF30AF07031CB0038C293F
:1002F8007C270A128A112030F501F6004130F700F8
:100308008F250A128A11031C8C29AF0A0319B00A17
:100318003708803AFF0080307F02031D95290D3091
:1003280036020318C029982736080A128A15672149
:100338000A128A114C08C0004D08C1004E08C200BC
:10034800831633088312C300831634088312C4004B
:10035800831635088312C5000A128A15A5200A12C9
:100368008A1140088316B300831241088316B4002B
:10037800831242088316B50098273008803AFF0098
:1003880080307F02031DCA290A302F020318EB2987
:10039800982735083404330403192C2A33085327C3
:1003A8000A128A11E2250A128A112708260425044E
:1003B8002404031D2C2A83163008803AFF0080305D
:1003C8007F02031DE92902302F02031C2C2A9827DB
:1003D8007C270A128A117030F5008930F600403007
:1003E800F7008F250A128A110318FC29F730FD2916
:1003F800F830AF07031CB0032F080A128A15D72458
:100408000A128A1131270A128A11F2003408F300FD
:100418003508F4002508F5002608F6002708F70037
:1004280086260A128A1175088316A3007408A2008A
:100438007308A1007208A0002308AB002208AA00D4
:100448002108A9002008A800B301B401B5016F2A4A
:100458009827330853270A128A11E2250A128A11AB
:1004680023278316A8002B088312A30083162A08C3
:100478008312A200831629088312A1008316280874
:100488008312A0000A128A158A240A128A112008E7
:10049800CC002108CD002208CE0083163308831231
:1004A800CF00831634088312D000831635088312D0
:1004B800D1000A128A158F200A128A114C08831655
:1004C800B30083124D088316B40083124E088316B6
:1004D800B500AF01B001B801B80A06270A168A119B
:1004E80000200A128A11DB000A168A1100200A125B
:1004F8008A11DC000A168A1100200A128A11DD000E
:100508000A168A1100200A128A11DE0083162B02AD
:10051800031D9E2A83125D0883162A02031D9E2A44
:1005280083125C0883162902031D9E2A83125B0826
:1005380083162802031CA52AB80A38080A3A031D9C
:10054800712A360838078312DA0083163708031829
:10055800370AB81BFF3E8312DB0083162F0883126D
:100568005A07DC00831630080318300A83125B0729
:10057800DD005C088316B10283125D088316031C34
:10058800B203B202370836040319CE2AFF30B10786
:10059800031CB2032D0803390319D62AFF30B1070B
:1005A800031CB2032D19E22AF72A30304D250A120E
:1005B8008A11FF309827B107031CB2033208803A2A
:1005C800FF0080307F02031DEB2A01303102031C3B
:1005D800352BD92A20304D250A128A11FF30982749
:1005E800B107031CB2033208803AFF0080307F0253
:1005F800031D002B013031020318EE2A98272D081D
:1006080003390319352B2D30322B10270A128A1182
:1006180006270A168A1100200A128A11F2000A1601
:100628008A1100200A128A11F3000A168A11002082
:100638000A128A11F4000A168A1100200A128A1175
:1006480018270A128A113D260A128A113E270A1211
:100658008A1151250A128A112508303E4D250A12A1
:100668008A119827B803380F092B3008803AFF0001
:1006780080307F02031D422B01302F02031C4E2BBA
:1006880030304D250A128A11FF309827AF07031C16
:10069800B003392B98273708803AFF0080307F0253
:1006A800031D582B09303602031C5D2B0830982790
:1006B8005F2B98273608B8008312DA00DB01DA1BB3
:1006C800DB038316B60283125B088316031CB70389
:1006D800B70238080319742B2E304D250A128A11D7
:1006E800982738080A128A15D7240A128A1140084E
:1006F800B4004108B5004208B600831633085E27E7
:100708000A128A15EC260A128A113108A400320846
:10071800A5003308A600E2250A128A1123270A1227
:100728008A11FC2B10270A128A1106270A168A1129
:1007380000200A128A11F2000A168A1100200A12F1
:100748008A11F3000A168A1100200A128A11F4008D
:100758000A168A1100200A128A1118270A128A1109
:100768003D260A128A113E270A128A1151250A12B9
:100778008A112508303E4D250A128A119827062726
:100788000A168A1100200A128A11A5000A168A116F
:1007980000200A128A11A6000A168A1100200A12DD
:1007A8008A11A7000A168A1100200A128A11A800C5
:1007B80083162B088312AC0083162A088312AB0019
:1007C800831629088312AA00831628088312A90011
:1007D80051250A128A1128088316AB0083122708AC
:1007E8008316AA00831226088316A90083122508F7
:1007F8008316A800B803380F962B37083604031958
:10080800132830304D250A128A11FF309827B60771
:10081800031CB703012C8316240884008313912733
:100828000A128A115A088316A80083125B088316D5
:10083800A900AA01AB01A40AA40A37083604031DBB
:100848002D2C2B082A04290428040319B60A031995
:10085800B70AB801B80A06270A168A1100200A1230
:100868008A11DB000A168A1100200A128A11DC009C
:100878000A168A1100200A128A11DD000A168A1146
:1008880000200A128A11DE0083162B02031D5C2C3D
:1008980083125D0883162A02031D5C2C83125C08F0
:1008A80083162902031D5C2C83125B088316280219
:1008B800031C632CB80A38080A3A031D2F2C380881
:1008C80069270A128A113708803A83125C02031DCD
:1008D800712C8316360883125A020318772C98272E
:1008E8003608B8008F2C831673270A128A11370826
:1008F800803A8312DC005B08803A5C02031D872C77
:100908005A088316360203188F2C98273808B60021
:10091800B701B61BB70398273208310403199C2C7A
:100928002D08033903199C2CFF30B107031CB203AF
:100938002E1FB92C3708803A8312DA008316320842
:10094800803A83125A02031DAC2C831631083602F2
:100958000318B62C98273608B1023708031CB203CF
:10096800B202B92C9827B101B201380869270A12D6
:100978008A113208803A83125C02031DC72C831641
:10098800310883125A020318D52C831673270A12CA
:100998008A11B10283125B088316031CB203B202E8
:1009A800D82C9827B101B2012D1DF12C2D0803393F
:1009B8000319E22C2D304D250A128A119827320886
:1009C800310403190A2D30304D250A128A11FF30DF
:1009D8009827B107031CB203E32C3208310403192A
:1009E800022D20304D250A128A11FF309827B107B1
:1009F800031CB20332083104031DF52C2D080339FA
:100A080003190A2D2D304D250A128A11FF30982717
:100A1800B607031CB703360A0319370A0319132844
:100A28000A308312A500A601A701A801831636087B
:100A38008312DA000310DA0D03105A0D4F3E8400BA
:100A48000A168A1100200A128A11F2000A168A115F
:100A580000200A128A11F3000A168A1100200A12CD
:100A68008A11F4000A168A1100200A128A1118271E
:100A78000A128A113D260A128A113E270A128A1181
:100A880051250A128A112508303E8316B800072D11
:100A98000800FB000A128A15D12A28082704260410
:100AA80025040319862DFA01FA0AA81B612D0310E3
:100AB800A50DA60DA70DA80D582D28082C02031D5D
:100AC8006F2D27082B02031D6F2D26082A02031DF0
:100AD8006F2D25082902031C802D2508A902260848
:100AE800031C260FAA022708031C270FAB0228089D
:100AF800031C280FAC020310A80CA70CA60CA50C0D
:100B0800FA0B612D2C08A8002B08A7002A08A600BC
:100B18002908A5000800F41F9E2D7208003CF20069
:100B28007308031C730F003CF3007408031C740F54
:100B3800803CF400F71FAD2D7508003CF5007608E1
:100B4800031C760F003CF6007708031C770F803CE7
:100B5800F7008030F406F70677087402031D0800D2
:100B680076087302031D0800750872020800F30076
:100B78003A30F20173020318C72D30307302031C98
:100B8800C72DF201F20A720C0800F601F701721C77
:100B9800D32D7408F6070318F70A7508F70703102A
:100BA800F40DF50D0310F30CF20C73087204031D19
:100BB800CB2D7708F3007608F20008008A270A127E
:100BC8008A110310290D2A0DB000B008031DF12D5C
:100BD800A401A501A601A70108008A270A128A1103
:100BE80017300310AA0CA90CA80CFF3E031DF52D05
:100BF8002808AB00A517A6012408AC002508AD00FD
:100C08002608AE008E30AF01B002B01F182E300893
:100C1800803A8F3E031CEC2D0310AF0CAE0CAD0CCC
:100C2800AC0CB00F102E262E183030020318EC2D05
:100C3800B0080319262E0310AC0DAD0DAE0DAF0D87
:100C4800B0031C2E2B080319342EAC09AD09AE09CC
:100C5800AF09AC0A0319AD0A0319AE0A0319AF0AA2
:100C68002F08A7002E08A6002D08A5002C08A40010
:100C780008008312A001A101A201A3017508740450
:100C88007304720403197D2EA401A40AF51B522EC5
:100C98000310F20DF30DF40DF50D492E0310A00D00
:100CA800A10DA20DA30D75087902031D652E740808
:100CB8007802031D652E73087702031D652E7208DE
:100CC8007602031C772E7208F6027308031C730F52
:100CD800F7027408031C740FF8027508031C750FDB
:100CE800F90220140310F50CF40CF30CF20CA40B0D
:100CF800522E2308F5002208F4002108F3002008EA
:100D0800F20008007208F8007308F9007408FA0085
:100D18000310790D7A0D8312A500A508031D992EDD
:100D2800F201F301F401F50108007508F8007608EE
:100D3800F9007708FA000310790D7A0DA400A408C9
:100D48000319942E7F30F317F401F617F701A00169
:100D5800A101A201A301A50298302407F800A50269
:100D68001830A4000310A00DA10DA20DA30D770843
:100D78007402031DC52E76087302031DC52E75085F
:100D88007202031CD32E7508F2027608031C760F34
:100D9800F3027708031C770AF40220140310F20DFB
:100DA800F30DF40DA40BB62EA51FE72E2508803AE7
:100DB800973E031C942E0310A30CA20CA10CA00CAC
:100DC800A50FDF2EF52E183025020318942EA5083E
:100DD8000319F52E0310A00DA10DA20DA30DA50357
:100DE800EB2E2308F5002208F4002108F300200860
:100DF800F2000800740873047204031908008030B4
:100E0800F406080038088312DA000310DA0D03101C
:100E18005A0D4F3E840008000A308312A500A6012F
:100E2800A701A80183160800F50083162B08F9000E
:100E38002A08F8002908F7002808F60008002708FB
:100E48008316AB00831226088316AA00831225088E
:100E58008316A90083122408080040088316A500F9
:100E6800831241088316A600831242088316A7003E
:100E7800330808007508AC007408AB007308AA00B2
:100E88007208A900080072078312DA0000300318FC
:100E980001307307DB005A08D03E8316080083121E
:100EA800A400831634088312A5008316350883121C
:100EB800A60008008312B100831634088312B2001A
:100EC800831635088312B30008008312DA00DB01A9
:100ED800DA1BDB035B08803ADC0083160800031387
:100EE80038088312DA00DB01DA1BDB0383160800FB
:100EF8002508F2002608F3002708F40008008312EA
:100F08005B080318013EFF3E831608002408A8006A
:100F18002508A9002608AA00080000088312DA009C
:100F2800840A0008DB0008008316031308008312F4
:100F380003130C1DA32F1608EA001508E9000D1C61
:100F4800A92F1C08EC001B08EB000C110D107108F0
:100F58008A00700E8300FE0E7E0E0900E201E30196
:100F6800E401E501E601E701E801E901EA01EB0135
:100F7800EC01ED01EE01EF0183010A168A11712ED1
:100F8800F31F08007209F4007309F500F40A031945
:0C0F9800F50A7408F2007508F300080068
:10111E008030CE064F08C0005008C1005108C200F2
:10112E004C08C3004D08C4004E08C500A520400859
:10113E00CC004108CD004208CE0008004008C60091
:10114E004108C7004208C8000310470D480DCB00E8
:10115E004308C6004408C7004508C8000310470DE1
:10116E00480DCA004B080319C8284A084B024A0802
:10117E000318D028C6004B08C60219304602031CBD
:10118E00CF284308C0004408C1004508C20008002B
:10119E004A08031908004B084A020318DE284B08B8
:1011AE00C6004A08C6021930460203180800063067
:1011BE00C900C21BC917C51B4917C117C201C417E5
:1011CE00C5014A084B02031805290310C30DC40DAF
:1011DE00C50DCA034A084B0603190029C90349085D
:1011EE00073903190029EC280310C20CC10CC00CDE
:1011FE00CB0A4B084A0603192129FB284B084A0241
:10120E00031821290310C00DC10DC20DCB034A08CE
:10121E004B0603191D29C9034908073903191D294E
:10122E0009290310C50CC40CC30CCA0A4B084A0684
:10123E00031D1829C91F2C29FF30C006C106C2067E
:10124E00C00A0319C10A0319C20A491F3729FF3000
:10125E00C306C406C506C30A0319C40A0319C50A80
:10126E00C9014008C307410803110318410A031DB1
:10127E00C407420803110318420A031DC507C51F00
:10128E005329FF30C306C406C506C30A0319C40A90
:10129E000319C50AC901C90A4308F2004408F3003C
:1012AE004508F4004B08F5004908F6000A128A15A5
:1012BE0069277208C0007308C1007408C2000800D4
:1012CE008312D5006E305502031CF2290330FB0049
:1012DE000A30F7006430F200550887220A128A1588
:1012EE006C220A128A155B270A128A151C3E84008C
:1012FE000A168A1100200A128A15B1000A168A11DE
:10130E0000200A128A15B2000A168A1100200A124B
:10131E008A15B3000330FB006430F70055086C22C9
:10132E000A128A155B270A128A15373E84000A169E
:10133E008A1100200A128A15B4000A168A1100209A
:10134E000A128A15B5000A168A1100200A128A1589
:10135E00B6000A128A15EC260A128A15B2220A1251
:10136E008A150330FB000A30F200550887220A1254
:10137E008A155B270A128A15013E84000A168A1105
:10138E0000200A128A15B1000A168A1100200A12CC
:10139E008A15B2000A168A1100200A128A15AA228C
:1013AE000A128A15EC260A128A153108CF00320865
:1013BE00D0003308D1003F30B101B201B3004F0865
:1013CE00B4005008B5005108B6000A128A15EC2672
:1013DE000A128A15A32A0B305502031C462A033023
:1013EE00FB000A30F200550887220A128A155B2785
:1013FE000A128A15013E84000A168A1100200A126A
:10140E008A15B1000A168A1100200A128A15B20036
:10141E000A168A1100200A128A15B3000330FB0047
:10142E000A30F70055086C220A128A155B270A1239
:10143E008A151C3E84000A168A1100200A128A158B
:10144E00B4000A168A1100200A128A15B5000A166F
:10145E008A1100200A128A15B6000A128A15EC2685
:10146E000A128A15B2220A128A153F30B101B20150
:10147E00AA220A128A15EC260A128A15A32A3F30CE
:10148E00B101B201B3000330FB0055080A128A15F0
:10149E005B270A128A15013E84000A168A11002063
:1014AE000A128A15B4000A168A1100200A128A1529
:1014BE00B5000A168A1100200A128A15B6000A1201
:1014CE008A15EC260A128A15A32AF800FA01770863
:1014DE000319852AF901F90AF71B782A0310F70D6B
:1014EE00722A0310FA0D77087802031C822A7708F5
:1014FE00F8027A140310F70CF90B782A7A08080010
:10150E00F4000830F500F6017408F30007300310FC
:10151E00F30CFF3E0310031D8F2A760D7304F600A5
:10152E000310F40D72087602031C9F2A7208F6024D
:10153E00F50B8B2A760808003108CC003208CD0056
:10154E003308CE000800B3005208B4005308B500AB
:10155E005408B60008003108D2003208D300330810
:10156E00D4000800F80077080319C02A4030F900AB
:10157E00C12AF9017808F90779088038F20000309D
:10158E00BB230A128A154B240A128A150038031936
:10159E000800CA2AFA00F72A0030F201F20ABB2329
:1015AE000A128A154B240A128A15003803190800EC
:1015BE00D92A0030F701F70AB92A7A0872240A12DA
:1015CE008A15031C08007A08F2000130BB230A12A8
:1015DE008A154B240A128A15003803190800F02ABE
:1015EE007A080A3A0319E02A063A0319D32AE42A9A
:1015FE0008000313881188100811081288120813A6
:10160E00881383120330881188100811F9008A306C
:10161E00F8005630F700F70B122BF80B122BF90BC4
:10162E00122B192B3030F2000030BB230A128A1510
:10163E000230F9004530F800A930F700F70B252BE2
:10164E00F80B252BF90B252B2C2B3030F20000300C
:10165E00BB230A128A150230F9004530F800A93072
:10166E00F700F70B382BF80B382BF90B382B3F2BD9
:10167E003230F2000030BB230A128A150330F90013
:10168E008A30F8005630F700F70B4B2BF80B4B2B2C
:10169E00F90B4B2B522B0330F9008A30F8005630E1
:1016AE00F700F70B582BF80B582BF90B582B5F2B19
:1016BE000330F9008A30F8005630F700F70B652B2F
:1016CE00F80B652BF90B652B6C2B4B240A128A1524
:1016DE000038031D6C2B2830F2000030BB230A1299
:1016EE008A154B240A128A150038031D782B0830F0
:1016FE00F2000030BB230A128A154B240A128A15F7
:10170E000038031D842B0C30F2000030BB230A126C
:10171E008A154B240A128A150038031D902B0030AF
:10172E00F201F20ABB230A128A154B240A128A15F9
:10173E000038031D9C2B0430F2000030BB230A122C
:10174E008A154B240A128A150038031DA82B003067
:10175E00F201F20ABB230A128A154B240A128A15C9
:10176E00003803190800B42BF50083160313081272
:10177E00881208138813831288107508031D8814A5
:10178E002130F300F30BC92B872421300811F3000D
:10179E00F30BCF2B872488117208F600760E0139D1
:1017AE00F300730C031CDE2B87240816E02B872412
:1017BE000812760EF300730C0139F400740C031C3E
:1017CE00EB2B87248816ED2B87248812760E802427
:1017DE000A128A15031CF62B87240817F82B872468
:1017EE000813760D760D0139F300730C031C022CD1
:1017FE0087248817042C872488132130F300F30BD9
:10180E00062C872421308815F300F30B0C2C87242B
:10181E00881176080139F300730C031C192C8724E8
:10182E0008161B2C87240812760C0139F300730C52
:10183E00031C242C87248816262C87248812760CC9
:10184E00F300730C0139F400740C031C312C872443
:10185E000817332C87240813760C80240A128A1555
:10186E00031C3C2C872488173E2C87248813213098
:10187E00F300F30B402C872421308815F300F30B73
:10188E00462C872488110800831603130816881621
:10189E00081788178312213008158810F200F20BF2
:1018AE00562C872421308815F200F20B5C2C003068
:1018BE008724881B0130F30021308811F200F20BCF
:1018CE00662C872421308815F200F20B6C2C8724AD
:1018DE00881173080800F3007F30F20173020318B9
:1018EE007E2C20307302031C7E2CF201F20A720C45
:1018FE000800F300F30C730C0139F400740C0800AB
:10190E008312031308008E30FA00FF3023050319EB
:10191E00972C0310A30CA20CA10CA00CFA0A8C2C71
:10192E002008F2002108F3002208F4007A08F500DE
:10193E00F60169277208A0007308A1007408A200BE
:10194E0008008E30FB01FA00A31FBA2CA009A109D2
:10195E00A209A309A00A0319A10A0319A20A0319CD
:10196E00A30AFB01FB0AFF3023050319C52C031044
:10197E00A30CA20CA10CA00CFA0ABA2C2008F2009F
:10198E002108F3002208F4007A08F5007B08F6001F
:10199E0069277208A0007308A1007408A20008004D
:1019AE008312CA00CA1FA32DCA09CA0A4A08803A5E
:1019BE00123E031C472D0A30CB270A128A15AF267A
:1019CE000A128A157308FB007208FA0069260A12B9
:1019DE008A15E0271C3E84000A168A1100200A127E
:1019EE008A15B1000A168A1100200A128A15B20051
:1019FE000A168A1100200A128A15E8270A128A1579
:101A0E00FA1BFB0369260A128A15AF27373E84009C
:101A1E000A168A1100200A128A15B4000A168A11B3
:101A2E0000200A128A15B5000A168A1100200A1221
:101A3E008A15B600EC260A128A15B7270A128A15DD
:101A4E00F41BF503AF260A128A15A727013E840060
:101A5E000A168A1100200A128A15B1000A168A1176
:101A6E0000200A128A15B2000A168A1100200A12E4
:101A7E008A15F0270A128A15EC260A128A15C42F27
:101A8E004A08803A753E031C8C2D0A30F200F30191
:101A9E004A08F400F501F41BF503AF260A128A1565
:101AAE00A727013E84000A168A1100200A128A1501
:101ABE00B1000A168A1100200A128A15B2000A16FF
:101ACE008A1100200A128A15F8270A128A15FA1BA3
:101ADE00FB0369260A128A15AF271C3E84000A16DC
:101AEE008A1100200A128A15B4000A168A110020E3
:101AFE000A128A15B5000A168A1100200A128A15D2
:101B0E00B600EC260A128A15C42F0330FB004A08D1
:101B1E005B27013E84000A168A1100200A128A15DC
:101B2E00C0000A168A1100200A128A15C1000A1670
:101B3E008A110020C20008004A08803A123E031C97
:101B4E000D2E0A30CB270A128A15AF260A128A15D5
:101B5E007308FB007208FA0069260A128A15E0273C
:101B6E00433E84000A168A1100200A128A15B1001B
:101B7E000A168A1100200A128A15B2000A168A1154
:101B8E0000200A128A15E8270A128A15FA1BFB038F
:101B9E0069260A128A15AF275E3E84000A168A113C
:101BAE0000200A128A15B4000A168A1100200A12A1
:101BBE008A15B5000A168A1100200A128A15B60077
:101BCE00EC260A128A15B7270A128A15F41BF5039A
:101BDE00AF260A128A15A727283E84000A168A11F4
:101BEE0000200A128A15B1000A168A1100200A1264
:101BFE008A15B2000A168A1100200A128A15F027D9
:101C0E000A128A15EC260A128A15C42F4A08803A3F
:101C1E00753E031C522E0A30F200F3014A08F400FE
:101C2E00F501F41BF503AF260A128A15A727283EE5
:101C3E0084000A168A1100200A128A15B1000A16AB
:101C4E008A1100200A128A15B2000A168A11002083
:101C5E000A128A15F8270A128A15FA1BFB0369263F
:101C6E000A128A15AF27433E84000A168A110020F5
:101C7E000A128A15B4000A168A1100200A128A1551
:101C8E00B5000A168A1100200A128A15B600EC2633
:101C9E000A128A15C42F0330FB004A085B27283E20
:101CAE0084000A168A1100200A128A15C0000A162C
:101CBE008A1100200A128A15C1000A168A11002004
:101CCE00C20008008312A101F91F742EF809F90948
:101CDE00F80A0319F90AA101A10AFB1F7D2EFA09C0
:101CEE00FB09FA0A0319FB0A0130A106A201A3019E
:101CFE00790878040319A22EA001A00AF91B8B2ED5
:101D0E000310F80DF90D842E0310A20DA30D790802
:101D1E007B02031D942E78087A02031C9E2E7808EF
:101D2E00FA027908031CFB03FB0222140310F90CC0
:101D3E00F80CA00B8B2E21080319AA2EA209A309B9
:101D4E00A20A0319A30A2308F9002208F8000800C2
:101D5E00F701F51FB92EF409F509F40A0319F50A6E
:101D6E00F701F70AF31FC02EF209F309F20A03195D
:101D7E00F30A730872040319DF2EF601F60AF31B39
:101D8E00CC2E0310F20DF30DC52E73087502031D34
:101D9E00D22E72087402031CDB2E7208F402730832
:101DAE00031CF503F5020310F30CF20CF60BCC2E0C
:101DBE0077080319E72EF409F509F40A0319F50A51
:101DCE007508F3007408F20008003108B7003208F5
:101DDE00B8003308B9000310380D390DBA00BA082F
:101DEE00031DFD2EB101B201B30108003408B70086
:101DFE003508B8003608B9000310380D390DBF008C
:101E0E00BF08031D0E2FB101B201B30108003F0838
:101E1E007B3EBA073308BF003608BF068030BF05C9
:101E2E000730B217B517B601BB01BC01BD01BE002C
:101E3E00311C292F3408D6270A128A150318360AA0
:101E4E00031DBD070310B30CB20CB10C0310B40D7F
:101E5E00B50DB60DBE0B1F2F0930BE00311C3F2F26
:101E6E003408D6270A128A150318360A031DBD0731
:101E7E000310B30CB20CB10C0310BD0CBC0CBB0C9C
:101E8E00BE0B352F3B08F2003C08F3003D08F40072
:101E9E003A08F5003F08F60069277208B10073088A
:101EAE00B2007408B3000800A100A0017B0821183D
:101EBE00A0070310FB0D0310A10CA108031D5D2F3D
:101ECE002008080075080319712F74087304720432
:101EDE00031D7A2FF201F301F4010800F50A031035
:101EEE00F40CF30CF20CFE3074050319892F752FC8
:101EFE00F50AF20A0319F30A0319F40A0310F40C93
:101F0E00F30CF20CFF3074050319932F7F2FF5039A
:101F1E000310F20DF30DF40DF31F8E2F751CF3133A
:101F2E000310F50C7508F900F801F7017708F204B3
:101F3E007808F3047908F4047608031DF4170800F2
:101F4E007208C3007308C400430843074307080020
:101F5E007808C5007908C6004508450745070800FA
:101F6E003108C7003208C8003308C9000A30F20031
:101F7E00F3014A08F400F50108003108C0003208E8
:101F8E00C1003308C2000800F800F9014A08F40045
:101F9E00F501F41BF5036430F200F3010800BB07F2
:101FAE00350803110318350A031DBC073608031143
:101FBE0008007808C3007908C400430843074307A4
:101FCE000800B3006430F800F9014A08FA00FB017A
:101FDE000800B3004708B4004808B5004908B60029
:101FEE000800B3000A30F800F9014A08FA00FB01B4
:101FFE00080010308A000408840A82070034003476
:10200E0080343F34CD34CC343D34D73423343C3457
:10201E00123483343A34B734D1343834C634273496
:10202E003734383486343534C034D6343334CC3443
:10203E002B343234703489343034E734DB342E347C
:10204E00E5343C341E344234A2340D340034803432
:10205E003F340034203441340034C8344234003428
:10206E007A34443440341C3446345034C334473408
:10207E00243474344934973418344B34BC34BE345D
:10208E004C346B346E344E3403341534503479344E
:10209E00AD346034F33449347134013400340034D7
:1020AE0000340A3400340034003464340034003414
:1020BE000034E83403340034003410342734003450
:1020CE000034A034863401340034403442340F34AA
:1020DE00003480349634983400340034E134F534CE
:1020EE0005340034CA349A343B34783475346E3443
:1020FE0067343A342034253430343834753400346F
:10210E0066343A342034253435342E343234663441
:02211E0000348B
:102CE20083160317890188010A128A1500230A161E
:102CF2008A1183160910891083128910831607140A
:102D02008312901090121012101510138F018E0161
:102D120010148316053007158714831297000430A8
:102D22009D0083160C1583120C1183160D14831249
:102D32000D100B178B1703308312E1008A30E0006D
:102D42005630DF00DF0BA32EE00BA32EE10BA32EE8
:102D5200AA2E8312031307308914E0007D30DF00AE
:102D6200DF0BB12EE00BB12E8312031389106C0816
:102D7200F3006B08F2006908F2026A08031CF3030D
:102D8200F3020A128A11C4270A168A117208E20093
:102D92007308E3000030E31BFF30E400E500C030BD
:102DA200B1005630B2003430B3006508A3006408A5
:102DB200A2006308A1006208A0000A128A15A824D2
:102DC2000A168A112008B4002108B5002208B600AC
:102DD2000A128A15EC260A168A113108ED00320809
:102DE200EE003308EF00D030B1008430B20046303C
:102DF200B3006D08B4006E08B5006F08B6000A1281
:102E02008A15EC260A168A113108E6003208E70014
:102E12003308E8000030F7010A128A15B9220A16AF
:102E22008A116508D9006408D8006308D7006208CF
:102E3200D60077300A128A110F200A168A11003042
:102E4200F701F70A0A128A15B9220A168A116608C8
:102E5200D6006708D7006808D80082300A128A11A3
:102E62000F200A168A119C2E7230840000088312E9
:102E72000313A000840A0008A100840A0008A2002B
:102E8200840A0008A3000310220D230DAD00AD0833
:102E9200031D502FF201F301F401F5010800753012
:102EA200F3270A168A110310220D230DAC00AC0879
:102EB20003194B2F723084008030840A840A800404
:102EC2007230840A84007530840A840A840A80017C
:102ED20084008030840A840A80047530840A840065
:102EE2007F30840A840A840A8001A801A901AA0108
:102EF200AB01AD02A0302C07A000AD022030AC0027
:102F020075300310A80DA90DAA0DAB0DF3270A16F3
:102F12008A11723084000008A400840A0008A50007
:102F2200840A0008A600840A0008A70023082702D2
:102F3200031DA52F22082602031DA52F2108250205
:102F4200031DA52F20082402031CC12F7530F3276F
:102F52000A168A117230840020088002840A21082D
:102F6200031C210F8002840A2208031C220F800204
:102F7200840A2308031C230A8002033084022814D3
:102F8200723084000310800D840A800D840A800D43
:102F9200840A800DAC0B812FAD1FDC2F2D08803AE7
:102FA2009F3E031C4B2F0310AB0CAA0CA90CA80CC0
:102FB200AD0FD42FEA2F20302D0203184B2FAD086E
:102FC2000319EA2F0310A80DA90DAA0DAB0DAD032D
:102FD200E02F2B08F5002A08F4002908F30028083E
:102FE200F200080084000008A000840A0008A10082
:0E2FF200840A0008A200840A0008A300080058
:02400E00C2E30B
:00000001FF
